{
  "_format": "hh-sol-artifact-1",
  "contractName": "UniswapV3StrategyDiffDecimals",
  "sourceName": "contracts/strategies/uniswap/uniswapV3DiffDecimals.sol",
  "abi": [
    {
      "inputs": [],
      "stateMutability": "nonpayable",
      "type": "constructor"
    },
    {
      "inputs": [],
      "name": "EnforcedPause",
      "type": "error"
    },
    {
      "inputs": [],
      "name": "ExpectedPause",
      "type": "error"
    },
    {
      "inputs": [],
      "name": "InvalidCaller",
      "type": "error"
    },
    {
      "inputs": [],
      "name": "InvalidDecimals",
      "type": "error"
    },
    {
      "inputs": [],
      "name": "InvalidInitialization",
      "type": "error"
    },
    {
      "inputs": [],
      "name": "NotInitializing",
      "type": "error"
    },
    {
      "inputs": [],
      "name": "UnknownActionId",
      "type": "error"
    },
    {
      "inputs": [],
      "name": "ZeroAddress",
      "type": "error"
    },
    {
      "anonymous": false,
      "inputs": [
        {
          "indexed": false,
          "internalType": "uint64",
          "name": "version",
          "type": "uint64"
        }
      ],
      "name": "Initialized",
      "type": "event"
    },
    {
      "anonymous": false,
      "inputs": [
        {
          "indexed": false,
          "internalType": "address",
          "name": "account",
          "type": "address"
        }
      ],
      "name": "Paused",
      "type": "event"
    },
    {
      "anonymous": false,
      "inputs": [
        {
          "indexed": false,
          "internalType": "address",
          "name": "account",
          "type": "address"
        }
      ],
      "name": "Unpaused",
      "type": "event"
    },
    {
      "inputs": [
        {
          "internalType": "uint256",
          "name": "amount",
          "type": "uint256"
        }
      ],
      "name": "applySlippageDepositExactInputSingle",
      "outputs": [
        {
          "internalType": "uint256",
          "name": "",
          "type": "uint256"
        }
      ],
      "stateMutability": "view",
      "type": "function"
    },
    {
      "inputs": [
        {
          "internalType": "uint256",
          "name": "amount",
          "type": "uint256"
        }
      ],
      "name": "applySlippageWithdrawExactOutputSingle",
      "outputs": [
        {
          "internalType": "uint256",
          "name": "",
          "type": "uint256"
        }
      ],
      "stateMutability": "view",
      "type": "function"
    },
    {
      "inputs": [],
      "name": "chainlinkLatestAnswer",
      "outputs": [
        {
          "internalType": "int256",
          "name": "",
          "type": "int256"
        }
      ],
      "stateMutability": "view",
      "type": "function"
    },
    {
      "inputs": [],
      "name": "chainlinkPricefeed",
      "outputs": [
        {
          "internalType": "contract IChainlinkAggregator",
          "name": "",
          "type": "address"
        }
      ],
      "stateMutability": "view",
      "type": "function"
    },
    {
      "inputs": [
        {
          "internalType": "uint256",
          "name": "actionId",
          "type": "uint256"
        },
        {
          "internalType": "uint256",
          "name": "amount",
          "type": "uint256"
        }
      ],
      "name": "handleReport",
      "outputs": [
        {
          "internalType": "uint256",
          "name": "",
          "type": "uint256"
        },
        {
          "internalType": "uint256",
          "name": "",
          "type": "uint256"
        }
      ],
      "stateMutability": "payable",
      "type": "function"
    },
    {
      "inputs": [
        {
          "internalType": "address",
          "name": "_l2PoolingManager",
          "type": "address"
        },
        {
          "internalType": "address",
          "name": "_underlyingToken",
          "type": "address"
        },
        {
          "internalType": "address",
          "name": "_yieldToken",
          "type": "address"
        },
        {
          "internalType": "address",
          "name": "_uniswapRouter",
          "type": "address"
        },
        {
          "internalType": "address",
          "name": "_uniswapFactory",
          "type": "address"
        },
        {
          "internalType": "address",
          "name": "_chainlinkPricefeed",
          "type": "address"
        },
        {
          "internalType": "uint256",
          "name": "_minReceivedAmountFactor",
          "type": "uint256"
        },
        {
          "internalType": "uint24",
          "name": "_poolFee",
          "type": "uint24"
        }
      ],
      "name": "initialize",
      "outputs": [],
      "stateMutability": "nonpayable",
      "type": "function"
    },
    {
      "inputs": [
        {
          "internalType": "address",
          "name": "_l2PoolingManager",
          "type": "address"
        },
        {
          "internalType": "address",
          "name": "_underlyingToken",
          "type": "address"
        },
        {
          "internalType": "address",
          "name": "_yieldToken",
          "type": "address"
        }
      ],
      "name": "initializeStrategyBase",
      "outputs": [],
      "stateMutability": "nonpayable",
      "type": "function"
    },
    {
      "inputs": [],
      "name": "minReceivedAmountFactor",
      "outputs": [
        {
          "internalType": "uint256",
          "name": "",
          "type": "uint256"
        }
      ],
      "stateMutability": "view",
      "type": "function"
    },
    {
      "inputs": [],
      "name": "nav",
      "outputs": [
        {
          "internalType": "uint256",
          "name": "",
          "type": "uint256"
        }
      ],
      "stateMutability": "view",
      "type": "function"
    },
    {
      "inputs": [],
      "name": "paused",
      "outputs": [
        {
          "internalType": "bool",
          "name": "",
          "type": "bool"
        }
      ],
      "stateMutability": "view",
      "type": "function"
    },
    {
      "inputs": [],
      "name": "poolFee",
      "outputs": [
        {
          "internalType": "uint24",
          "name": "",
          "type": "uint24"
        }
      ],
      "stateMutability": "view",
      "type": "function"
    },
    {
      "inputs": [],
      "name": "poolingManager",
      "outputs": [
        {
          "internalType": "address",
          "name": "",
          "type": "address"
        }
      ],
      "stateMutability": "view",
      "type": "function"
    },
    {
      "inputs": [],
      "name": "pricefeedPrecision",
      "outputs": [
        {
          "internalType": "uint256",
          "name": "",
          "type": "uint256"
        }
      ],
      "stateMutability": "view",
      "type": "function"
    },
    {
      "inputs": [
        {
          "internalType": "uint256",
          "name": "_minReceivedAmountFactor",
          "type": "uint256"
        }
      ],
      "name": "setMinReceivedAmountFactor",
      "outputs": [],
      "stateMutability": "nonpayable",
      "type": "function"
    },
    {
      "inputs": [
        {
          "internalType": "uint256",
          "name": "amount",
          "type": "uint256"
        }
      ],
      "name": "underlyingToYield",
      "outputs": [
        {
          "internalType": "uint256",
          "name": "",
          "type": "uint256"
        }
      ],
      "stateMutability": "view",
      "type": "function"
    },
    {
      "inputs": [],
      "name": "underlyingToken",
      "outputs": [
        {
          "internalType": "address",
          "name": "",
          "type": "address"
        }
      ],
      "stateMutability": "view",
      "type": "function"
    },
    {
      "inputs": [],
      "name": "underlyingTokenPrecision",
      "outputs": [
        {
          "internalType": "uint256",
          "name": "",
          "type": "uint256"
        }
      ],
      "stateMutability": "view",
      "type": "function"
    },
    {
      "inputs": [],
      "name": "uniswapRouter",
      "outputs": [
        {
          "internalType": "contract ISwapRouter",
          "name": "",
          "type": "address"
        }
      ],
      "stateMutability": "view",
      "type": "function"
    },
    {
      "inputs": [],
      "name": "yieldBalance",
      "outputs": [
        {
          "internalType": "uint256",
          "name": "",
          "type": "uint256"
        }
      ],
      "stateMutability": "view",
      "type": "function"
    },
    {
      "inputs": [
        {
          "internalType": "uint256",
          "name": "amount",
          "type": "uint256"
        }
      ],
      "name": "yieldToUnderlying",
      "outputs": [
        {
          "internalType": "uint256",
          "name": "",
          "type": "uint256"
        }
      ],
      "stateMutability": "view",
      "type": "function"
    },
    {
      "inputs": [],
      "name": "yieldToken",
      "outputs": [
        {
          "internalType": "address",
          "name": "",
          "type": "address"
        }
      ],
      "stateMutability": "view",
      "type": "function"
    },
    {
      "inputs": [],
      "name": "yieldTokenPrecision",
      "outputs": [
        {
          "internalType": "uint256",
          "name": "",
          "type": "uint256"
        }
      ],
      "stateMutability": "view",
      "type": "function"
    }
  ],
  "bytecode": "0x60806040523480156200001157600080fd5b507ff0c57e16840df040f15088dc2f81fe391c3923bec73e23a9662efc9c229c6a00805468010000000000000000810460ff1615906001600160401b03166000811580156200005d5750825b90506000826001600160401b031660011480156200007a5750303b155b90508115801562000089575080155b15620000a85760405163f92ee8a960e01b815260040160405180910390fd5b84546001600160401b03191660011785558315620000d757845460ff60401b1916680100000000000000001785555b83156200010d57845460ff60401b19168555604051600181526000805160206200191c8339815191529060200160405180910390a15b50505050506000620001246200020c60201b60201c565b805490915060ff6801000000000000000082041615906001600160401b0316600081158015620001515750825b90506000826001600160401b031660011480156200016e5750303b155b9050811580156200017d575080155b156200019c5760405163f92ee8a960e01b815260040160405180910390fd5b84546001600160401b03191660011785558315620001cb57845460ff60401b1916680100000000000000001785555b83156200020157845460ff60401b19168555604051600181526000805160206200191c8339815191529060200160405180910390a15b505050505062000230565b7ff0c57e16840df040f15088dc2f81fe391c3923bec73e23a9662efc9c229c6a0090565b6116dc80620002406000396000f3fe6080604052600436106101355760003560e01c8063808a9df8116100ab578063c1590cd71161006f578063c1590cd714610383578063cf062f0d14610398578063d6355916146103ad578063d7f70803146103c3578063dfa10b33146103e3578063f881f4091461040357600080fd5b8063808a9df8146102db57806382ccd814146102fb57806383ce2b341461031b57806384502bb91461033b5780639d1ea42c1461035b57600080fd5b80634f15fb5f116100fd5780634f15fb5f146102015780635c975abb14610221578063735de9f71461026357806376d5de85146102835780637a112dd0146102a35780637dba20ab146102b957600080fd5b8063089fe6aa1461013a57806319e8e2a91461016f5780632495a5991461019d57806333a3425f146101d55780634d4f59bc146101eb575b600080fd5b34801561014657600080fd5b506007546101569062ffffff1681565b60405162ffffff90911681526020015b60405180910390f35b34801561017b57600080fd5b5061018f61018a366004611310565b610418565b604051908152602001610166565b3480156101a957600080fd5b506001546101bd906001600160a01b031681565b6040516001600160a01b039091168152602001610166565b3480156101e157600080fd5b5061018f60085481565b3480156101f757600080fd5b5061018f60095481565b34801561020d57600080fd5b5061018f61021c366004611310565b610429565b34801561022d57600080fd5b507fcd5ed15c6e187e77e9aee88184c21f4f2182ab5827cb3b7e07fbedcd63f033005460ff166040519015158152602001610166565b34801561026f57600080fd5b506003546101bd906001600160a01b031681565b34801561028f57600080fd5b506002546101bd906001600160a01b031681565b3480156102af57600080fd5b5061018f60055481565b3480156102c557600080fd5b506102d96102d436600461133e565b610434565b005b3480156102e757600080fd5b506102d96102f63660046113e6565b610540565b34801561030757600080fd5b506102d9610316366004611310565b6106f1565b34801561032757600080fd5b5061018f610336366004611310565b610705565b34801561034757600080fd5b506004546101bd906001600160a01b031681565b61036e610369366004611431565b610710565b60408051928352602083019190915201610166565b34801561038f57600080fd5b5061018f610784565b3480156103a457600080fd5b5061018f610793565b3480156103b957600080fd5b5061018f60065481565b3480156103cf57600080fd5b506000546101bd906001600160a01b031681565b3480156103ef57600080fd5b5061018f6103fe366004611310565b610800565b34801561040f57600080fd5b5061018f61080b565b600061042382610815565b92915050565b600061042382610837565b6000805160206116878339815191528054600160401b810460ff16159067ffffffffffffffff166000811580156104685750825b905060008267ffffffffffffffff1660011480156104855750303b155b905081158015610493575080155b156104b15760405163f92ee8a960e01b815260040160405180910390fd5b845467ffffffffffffffff1916600117855583156104db57845460ff60401b1916600160401b1785555b6104eb8d8d8d8d8d8d8d8d610850565b831561053157845460ff60401b19168555604051600181527fc7f505b2f371ae2175ee4913f4499e1f2633a7b5936321eed1cdaeb6115181d29060200160405180910390a15b50505050505050505050505050565b6000805160206116878339815191528054600160401b810460ff16159067ffffffffffffffff166000811580156105745750825b905060008267ffffffffffffffff1660011480156105915750303b155b90508115801561059f575080155b156105bd5760405163f92ee8a960e01b815260040160405180910390fd5b845467ffffffffffffffff1916600117855583156105e757845460ff60401b1916600160401b1785555b6105ef61092b565b6001600160a01b0388166106165760405163d92e233d60e01b815260040160405180910390fd5b6001600160a01b03871661063d5760405163d92e233d60e01b815260040160405180910390fd5b6001600160a01b0386166106645760405163d92e233d60e01b815260040160405180910390fd5b600080546001600160a01b03808b166001600160a01b031992831617909255600180548a8416908316179055600280549289169290911691909117905583156106e757845460ff60401b19168555604051600181527fc7f505b2f371ae2175ee4913f4499e1f2633a7b5936321eed1cdaeb6115181d29060200160405180910390a15b5050505050505050565b6106f961093d565b610702816109cd565b50565b600061042382610a4c565b60008061071b610a5f565b610723610aa2565b6000846107385761073384610acd565b610772565b600285036107505761074984610bac565b9050610772565b6001850315610772576040516308c4d1d560e01b815260040160405180910390fd5b61077a610da0565b9590945092505050565b600061078e610da0565b905090565b6002546040516370a0823160e01b81523060048201526000916001600160a01b0316906370a0823190602401602060405180830381865afa1580156107dc573d6000803e3d6000fd5b505050506040513d601f19601f8201168201806040525081019061078e9190611453565b600061042382610dad565b600061078e610dc0565b60065460009061082d83670de0b6b3a7640000611482565b6104239190611499565b6000670de0b6b3a76400008260065461082d9190611482565b6000805160206116878339815191528054600160401b810460ff16159067ffffffffffffffff166000811580156108845750825b905060008267ffffffffffffffff1660011480156108a15750303b155b9050811580156108af575080155b156108cd5760405163f92ee8a960e01b815260040160405180910390fd5b845467ffffffffffffffff1916600117855583156108f757845460ff60401b1916600160401b1785555b6109028d8d8d610540565b61090f8a8a8e8e8a610e15565b61091888611050565b610921876109cd565b6104eb8c8c611131565b61093361124b565b61093b611282565b565b60008054604051632474521560e21b815260048101929092523360248301526001600160a01b0316906391d1485490604401602060405180830381865afa15801561098c573d6000803e3d6000fd5b505050506040513d601f19601f820116820180604052508101906109b091906114bb565b61093b576040516348f5c3ed60e01b815260040160405180910390fd5b670de0b6b3a76400008111158015610a03575060646109f5670de0b6b3a7640000605f611482565b6109ff9190611499565b8110155b610a475760405162461bcd60e51b815260206004820152601060248201526f496e76616c696420736c69707061676560801b60448201526064015b60405180910390fd5b600655565b6000610423610a59610dc0565b836112b5565b7fcd5ed15c6e187e77e9aee88184c21f4f2182ab5827cb3b7e07fbedcd63f033005460ff161561093b5760405163d93c066560e01b815260040160405180910390fd5b6000546001600160a01b0316331461093b576040516348f5c3ed60e01b815260040160405180910390fd5b6000610ad882610a4c565b90506000610ae582610837565b60408051610100810182526001546001600160a01b0390811682526002548116602083015260075462ffffff168284015230606083015242608083015260a0820187905260c08201849052600060e0830152600354925163414bf38960e01b8152939450909291169063414bf38990610b629084906004016114dd565b6020604051808303816000875af1158015610b81573d6000803e3d6000fd5b505050506040513d601f19601f82011682018060405250810190610ba59190611453565b5050505050565b600080610bb7610dc0565b90506000610bc582856112b5565b90506000610bd282610815565b90506000610bde610793565b905080821115610cd5576000610bf485836112f1565b90506000610c0182610837565b60408051610100810182526002546001600160a01b0390811682526001548116602083015260075462ffffff1682840152600080548216606084015242608084015260a0830188905260c0830185905260e08301819052600354935163414bf38960e01b815294955091939192169063414bf38990610c849085906004016114dd565b6020604051808303816000875af1158015610ca3573d6000803e3d6000fd5b505050506040513d601f19601f82011682018060405250810190610cc79190611453565b9a9950505050505050505050565b60408051610100810182526002546001600160a01b0390811682526001548116602083015260075462ffffff1682840152600080548216606084015242608084015260a083018a905260c0830186905260e08301526003549251631b67c43360e31b81529192169063db3e219890610d519084906004016114dd565b6020604051808303816000875af1158015610d70573d6000803e3d6000fd5b505050506040513d601f19601f82011682018060405250810190610d949190611453565b50959695505050505050565b600061078e610dad610793565b6000610423610dba610dc0565b836112f1565b6000600460009054906101000a90046001600160a01b03166001600160a01b03166350d25bcd6040518163ffffffff1660e01b8152600401602060405180830381865afa1580156107dc573d6000803e3d6000fd5b6001600160a01b038516610e6b5760405162461bcd60e51b815260206004820152601c60248201527f5a65726f20616464726573733a20556e697377617020526f75746572000000006044820152606401610a3e565b600380546001600160a01b0319166001600160a01b0387811691909117909155604051630b4c774160e11b81528482166004820152838216602482015262ffffff83166044820152859160009190831690631698ee8290606401602060405180830381865afa158015610ee2573d6000803e3d6000fd5b505050506040513d601f19601f82011682018060405250810190610f069190611547565b90506001600160a01b038116610f545760405162461bcd60e51b8152602060048201526013602482015272141bdbdb08191bd95cc81b9bdd08195e1a5cdd606a1b6044820152606401610a3e565b6007805462ffffff191662ffffff851617905560405163095ea7b360e01b81526001600160a01b038881166004830152600019602483015286169063095ea7b3906044016020604051808303816000875af1158015610fb7573d6000803e3d6000fd5b505050506040513d601f19601f82011682018060405250810190610fdb91906114bb565b5060405163095ea7b360e01b81526001600160a01b038881166004830152600019602483015285169063095ea7b3906044016020604051808303816000875af115801561102c573d6000803e3d6000fd5b505050506040513d601f19601f820116820180604052508101906106e791906114bb565b6001600160a01b0381166110a65760405162461bcd60e51b815260206004820152601760248201527f5a65726f20616464726573733a20436861696e6c696e6b0000000000000000006044820152606401610a3e565b600480546001600160a01b0319166001600160a01b03831690811782556040805163313ce56760e01b81529051919263313ce5679282820192602092908290030181865afa1580156110fc573d6000803e3d6000fd5b505050506040513d601f19601f820116820180604052508101906111209190611564565b61112b90600a61166b565b60055550565b6000826001600160a01b031663313ce5676040518163ffffffff1660e01b8152600401602060405180830381865afa158015611171573d6000803e3d6000fd5b505050506040513d601f19601f820116820180604052508101906111959190611564565b90506000826001600160a01b031663313ce5676040518163ffffffff1660e01b8152600401602060405180830381865afa1580156111d7573d6000803e3d6000fd5b505050506040513d601f19601f820116820180604052508101906111fb9190611564565b90508060ff168260ff160361122357604051630692acc560e51b815260040160405180910390fd5b61123160ff8316600a61167a565b60085561124260ff8216600a61167a565b60095550505050565b60008051602061168783398151915254600160401b900460ff1661093b57604051631afcd79f60e31b815260040160405180910390fd5b61128a61124b565b7fcd5ed15c6e187e77e9aee88184c21f4f2182ab5827cb3b7e07fbedcd63f03300805460ff19169055565b6000600854836112c59190611482565b826009546005546112d69190611482565b6112e09190611482565b6112ea9190611499565b9392505050565b60006009546005546113039190611482565b6008546112d68585611482565b60006020828403121561132257600080fd5b5035919050565b6001600160a01b038116811461070257600080fd5b600080600080600080600080610100898b03121561135b57600080fd5b883561136681611329565b9750602089013561137681611329565b9650604089013561138681611329565b9550606089013561139681611329565b945060808901356113a681611329565b935060a08901356113b681611329565b925060c0890135915060e089013562ffffff811681146113d557600080fd5b809150509295985092959890939650565b6000806000606084860312156113fb57600080fd5b833561140681611329565b9250602084013561141681611329565b9150604084013561142681611329565b809150509250925092565b6000806040838503121561144457600080fd5b50508035926020909101359150565b60006020828403121561146557600080fd5b5051919050565b634e487b7160e01b600052601160045260246000fd5b80820281158282048414176104235761042361146c565b6000826114b657634e487b7160e01b600052601260045260246000fd5b500490565b6000602082840312156114cd57600080fd5b815180151581146112ea57600080fd5b6101008101610423828480516001600160a01b03908116835260208083015182169084015260408083015162ffffff16908401526060808301518216908401526080808301519084015260a0828101519084015260c0808301519084015260e09182015116910152565b60006020828403121561155957600080fd5b81516112ea81611329565b60006020828403121561157657600080fd5b815160ff811681146112ea57600080fd5b600181815b808511156115c25781600019048211156115a8576115a861146c565b808516156115b557918102915b93841c939080029061158c565b509250929050565b6000826115d957506001610423565b816115e657506000610423565b81600181146115fc576002811461160657611622565b6001915050610423565b60ff8411156116175761161761146c565b50506001821b610423565b5060208310610133831016604e8410600b8410161715611645575081810a610423565b61164f8383611587565b80600019048211156116635761166361146c565b029392505050565b60006112ea60ff8416836115ca565b60006112ea83836115ca56fef0c57e16840df040f15088dc2f81fe391c3923bec73e23a9662efc9c229c6a00a2646970667358221220063bf17638d740dc771beb168083145cfd2e0665e6a5d2df33bcc347931b840f64736f6c63430008140033c7f505b2f371ae2175ee4913f4499e1f2633a7b5936321eed1cdaeb6115181d2",
  "linkReferences": {},
  "deployedLinkReferences": {}
}