{
  "_format": "hh-sol-artifact-1",
  "contractName": "ERC4626Mock",
  "sourceName": "contracts/mock/erc4626/erc4626Mintable.sol",
  "abi": [
    {
      "inputs": [
        {
          "internalType": "address",
          "name": "underlying",
          "type": "address"
        }
      ],
      "stateMutability": "nonpayable",
      "type": "constructor"
    },
    {
      "inputs": [
        {
          "internalType": "address",
          "name": "target",
          "type": "address"
        }
      ],
      "name": "AddressEmptyCode",
      "type": "error"
    },
    {
      "inputs": [
        {
          "internalType": "address",
          "name": "account",
          "type": "address"
        }
      ],
      "name": "AddressInsufficientBalance",
      "type": "error"
    },
    {
      "inputs": [
        {
          "internalType": "address",
          "name": "spender",
          "type": "address"
        },
        {
          "internalType": "uint256",
          "name": "allowance",
          "type": "uint256"
        },
        {
          "internalType": "uint256",
          "name": "needed",
          "type": "uint256"
        }
      ],
      "name": "ERC20InsufficientAllowance",
      "type": "error"
    },
    {
      "inputs": [
        {
          "internalType": "address",
          "name": "sender",
          "type": "address"
        },
        {
          "internalType": "uint256",
          "name": "balance",
          "type": "uint256"
        },
        {
          "internalType": "uint256",
          "name": "needed",
          "type": "uint256"
        }
      ],
      "name": "ERC20InsufficientBalance",
      "type": "error"
    },
    {
      "inputs": [
        {
          "internalType": "address",
          "name": "approver",
          "type": "address"
        }
      ],
      "name": "ERC20InvalidApprover",
      "type": "error"
    },
    {
      "inputs": [
        {
          "internalType": "address",
          "name": "receiver",
          "type": "address"
        }
      ],
      "name": "ERC20InvalidReceiver",
      "type": "error"
    },
    {
      "inputs": [
        {
          "internalType": "address",
          "name": "sender",
          "type": "address"
        }
      ],
      "name": "ERC20InvalidSender",
      "type": "error"
    },
    {
      "inputs": [
        {
          "internalType": "address",
          "name": "spender",
          "type": "address"
        }
      ],
      "name": "ERC20InvalidSpender",
      "type": "error"
    },
    {
      "inputs": [
        {
          "internalType": "address",
          "name": "receiver",
          "type": "address"
        },
        {
          "internalType": "uint256",
          "name": "assets",
          "type": "uint256"
        },
        {
          "internalType": "uint256",
          "name": "max",
          "type": "uint256"
        }
      ],
      "name": "ERC4626ExceededMaxDeposit",
      "type": "error"
    },
    {
      "inputs": [
        {
          "internalType": "address",
          "name": "receiver",
          "type": "address"
        },
        {
          "internalType": "uint256",
          "name": "shares",
          "type": "uint256"
        },
        {
          "internalType": "uint256",
          "name": "max",
          "type": "uint256"
        }
      ],
      "name": "ERC4626ExceededMaxMint",
      "type": "error"
    },
    {
      "inputs": [
        {
          "internalType": "address",
          "name": "owner",
          "type": "address"
        },
        {
          "internalType": "uint256",
          "name": "shares",
          "type": "uint256"
        },
        {
          "internalType": "uint256",
          "name": "max",
          "type": "uint256"
        }
      ],
      "name": "ERC4626ExceededMaxRedeem",
      "type": "error"
    },
    {
      "inputs": [
        {
          "internalType": "address",
          "name": "owner",
          "type": "address"
        },
        {
          "internalType": "uint256",
          "name": "assets",
          "type": "uint256"
        },
        {
          "internalType": "uint256",
          "name": "max",
          "type": "uint256"
        }
      ],
      "name": "ERC4626ExceededMaxWithdraw",
      "type": "error"
    },
    {
      "inputs": [],
      "name": "FailedInnerCall",
      "type": "error"
    },
    {
      "inputs": [],
      "name": "MathOverflowedMulDiv",
      "type": "error"
    },
    {
      "inputs": [
        {
          "internalType": "address",
          "name": "token",
          "type": "address"
        }
      ],
      "name": "SafeERC20FailedOperation",
      "type": "error"
    },
    {
      "anonymous": false,
      "inputs": [
        {
          "indexed": true,
          "internalType": "address",
          "name": "owner",
          "type": "address"
        },
        {
          "indexed": true,
          "internalType": "address",
          "name": "spender",
          "type": "address"
        },
        {
          "indexed": false,
          "internalType": "uint256",
          "name": "value",
          "type": "uint256"
        }
      ],
      "name": "Approval",
      "type": "event"
    },
    {
      "anonymous": false,
      "inputs": [
        {
          "indexed": true,
          "internalType": "address",
          "name": "sender",
          "type": "address"
        },
        {
          "indexed": true,
          "internalType": "address",
          "name": "owner",
          "type": "address"
        },
        {
          "indexed": false,
          "internalType": "uint256",
          "name": "assets",
          "type": "uint256"
        },
        {
          "indexed": false,
          "internalType": "uint256",
          "name": "shares",
          "type": "uint256"
        }
      ],
      "name": "Deposit",
      "type": "event"
    },
    {
      "anonymous": false,
      "inputs": [
        {
          "indexed": true,
          "internalType": "address",
          "name": "from",
          "type": "address"
        },
        {
          "indexed": true,
          "internalType": "address",
          "name": "to",
          "type": "address"
        },
        {
          "indexed": false,
          "internalType": "uint256",
          "name": "value",
          "type": "uint256"
        }
      ],
      "name": "Transfer",
      "type": "event"
    },
    {
      "anonymous": false,
      "inputs": [
        {
          "indexed": true,
          "internalType": "address",
          "name": "sender",
          "type": "address"
        },
        {
          "indexed": true,
          "internalType": "address",
          "name": "receiver",
          "type": "address"
        },
        {
          "indexed": true,
          "internalType": "address",
          "name": "owner",
          "type": "address"
        },
        {
          "indexed": false,
          "internalType": "uint256",
          "name": "assets",
          "type": "uint256"
        },
        {
          "indexed": false,
          "internalType": "uint256",
          "name": "shares",
          "type": "uint256"
        }
      ],
      "name": "Withdraw",
      "type": "event"
    },
    {
      "inputs": [
        {
          "internalType": "address",
          "name": "owner",
          "type": "address"
        },
        {
          "internalType": "address",
          "name": "spender",
          "type": "address"
        }
      ],
      "name": "allowance",
      "outputs": [
        {
          "internalType": "uint256",
          "name": "",
          "type": "uint256"
        }
      ],
      "stateMutability": "view",
      "type": "function"
    },
    {
      "inputs": [
        {
          "internalType": "address",
          "name": "spender",
          "type": "address"
        },
        {
          "internalType": "uint256",
          "name": "value",
          "type": "uint256"
        }
      ],
      "name": "approve",
      "outputs": [
        {
          "internalType": "bool",
          "name": "",
          "type": "bool"
        }
      ],
      "stateMutability": "nonpayable",
      "type": "function"
    },
    {
      "inputs": [],
      "name": "asset",
      "outputs": [
        {
          "internalType": "address",
          "name": "",
          "type": "address"
        }
      ],
      "stateMutability": "view",
      "type": "function"
    },
    {
      "inputs": [
        {
          "internalType": "address",
          "name": "account",
          "type": "address"
        }
      ],
      "name": "balanceOf",
      "outputs": [
        {
          "internalType": "uint256",
          "name": "",
          "type": "uint256"
        }
      ],
      "stateMutability": "view",
      "type": "function"
    },
    {
      "inputs": [
        {
          "internalType": "address",
          "name": "account",
          "type": "address"
        },
        {
          "internalType": "uint256",
          "name": "amount",
          "type": "uint256"
        }
      ],
      "name": "burn",
      "outputs": [],
      "stateMutability": "nonpayable",
      "type": "function"
    },
    {
      "inputs": [
        {
          "internalType": "uint256",
          "name": "shares",
          "type": "uint256"
        }
      ],
      "name": "convertToAssets",
      "outputs": [
        {
          "internalType": "uint256",
          "name": "",
          "type": "uint256"
        }
      ],
      "stateMutability": "view",
      "type": "function"
    },
    {
      "inputs": [
        {
          "internalType": "uint256",
          "name": "assets",
          "type": "uint256"
        }
      ],
      "name": "convertToShares",
      "outputs": [
        {
          "internalType": "uint256",
          "name": "",
          "type": "uint256"
        }
      ],
      "stateMutability": "view",
      "type": "function"
    },
    {
      "inputs": [],
      "name": "dai",
      "outputs": [
        {
          "internalType": "address",
          "name": "",
          "type": "address"
        }
      ],
      "stateMutability": "view",
      "type": "function"
    },
    {
      "inputs": [],
      "name": "decimals",
      "outputs": [
        {
          "internalType": "uint8",
          "name": "",
          "type": "uint8"
        }
      ],
      "stateMutability": "view",
      "type": "function"
    },
    {
      "inputs": [
        {
          "internalType": "uint256",
          "name": "assets",
          "type": "uint256"
        },
        {
          "internalType": "address",
          "name": "receiver",
          "type": "address"
        }
      ],
      "name": "deposit",
      "outputs": [
        {
          "internalType": "uint256",
          "name": "",
          "type": "uint256"
        }
      ],
      "stateMutability": "nonpayable",
      "type": "function"
    },
    {
      "inputs": [
        {
          "internalType": "address",
          "name": "",
          "type": "address"
        }
      ],
      "name": "maxDeposit",
      "outputs": [
        {
          "internalType": "uint256",
          "name": "",
          "type": "uint256"
        }
      ],
      "stateMutability": "view",
      "type": "function"
    },
    {
      "inputs": [
        {
          "internalType": "address",
          "name": "",
          "type": "address"
        }
      ],
      "name": "maxMint",
      "outputs": [
        {
          "internalType": "uint256",
          "name": "",
          "type": "uint256"
        }
      ],
      "stateMutability": "view",
      "type": "function"
    },
    {
      "inputs": [
        {
          "internalType": "address",
          "name": "owner",
          "type": "address"
        }
      ],
      "name": "maxRedeem",
      "outputs": [
        {
          "internalType": "uint256",
          "name": "",
          "type": "uint256"
        }
      ],
      "stateMutability": "view",
      "type": "function"
    },
    {
      "inputs": [
        {
          "internalType": "address",
          "name": "owner",
          "type": "address"
        }
      ],
      "name": "maxWithdraw",
      "outputs": [
        {
          "internalType": "uint256",
          "name": "",
          "type": "uint256"
        }
      ],
      "stateMutability": "view",
      "type": "function"
    },
    {
      "inputs": [
        {
          "internalType": "address",
          "name": "account",
          "type": "address"
        },
        {
          "internalType": "uint256",
          "name": "amount",
          "type": "uint256"
        }
      ],
      "name": "mint",
      "outputs": [],
      "stateMutability": "nonpayable",
      "type": "function"
    },
    {
      "inputs": [
        {
          "internalType": "uint256",
          "name": "shares",
          "type": "uint256"
        },
        {
          "internalType": "address",
          "name": "receiver",
          "type": "address"
        }
      ],
      "name": "mint",
      "outputs": [
        {
          "internalType": "uint256",
          "name": "",
          "type": "uint256"
        }
      ],
      "stateMutability": "nonpayable",
      "type": "function"
    },
    {
      "inputs": [],
      "name": "name",
      "outputs": [
        {
          "internalType": "string",
          "name": "",
          "type": "string"
        }
      ],
      "stateMutability": "view",
      "type": "function"
    },
    {
      "inputs": [
        {
          "internalType": "uint256",
          "name": "assets",
          "type": "uint256"
        }
      ],
      "name": "previewDeposit",
      "outputs": [
        {
          "internalType": "uint256",
          "name": "",
          "type": "uint256"
        }
      ],
      "stateMutability": "view",
      "type": "function"
    },
    {
      "inputs": [
        {
          "internalType": "uint256",
          "name": "shares",
          "type": "uint256"
        }
      ],
      "name": "previewMint",
      "outputs": [
        {
          "internalType": "uint256",
          "name": "",
          "type": "uint256"
        }
      ],
      "stateMutability": "view",
      "type": "function"
    },
    {
      "inputs": [
        {
          "internalType": "uint256",
          "name": "shares",
          "type": "uint256"
        }
      ],
      "name": "previewRedeem",
      "outputs": [
        {
          "internalType": "uint256",
          "name": "",
          "type": "uint256"
        }
      ],
      "stateMutability": "view",
      "type": "function"
    },
    {
      "inputs": [
        {
          "internalType": "uint256",
          "name": "assets",
          "type": "uint256"
        }
      ],
      "name": "previewWithdraw",
      "outputs": [
        {
          "internalType": "uint256",
          "name": "",
          "type": "uint256"
        }
      ],
      "stateMutability": "view",
      "type": "function"
    },
    {
      "inputs": [
        {
          "internalType": "uint256",
          "name": "shares",
          "type": "uint256"
        },
        {
          "internalType": "address",
          "name": "receiver",
          "type": "address"
        },
        {
          "internalType": "address",
          "name": "owner",
          "type": "address"
        }
      ],
      "name": "redeem",
      "outputs": [
        {
          "internalType": "uint256",
          "name": "",
          "type": "uint256"
        }
      ],
      "stateMutability": "nonpayable",
      "type": "function"
    },
    {
      "inputs": [],
      "name": "symbol",
      "outputs": [
        {
          "internalType": "string",
          "name": "",
          "type": "string"
        }
      ],
      "stateMutability": "view",
      "type": "function"
    },
    {
      "inputs": [],
      "name": "totalAssets",
      "outputs": [
        {
          "internalType": "uint256",
          "name": "",
          "type": "uint256"
        }
      ],
      "stateMutability": "view",
      "type": "function"
    },
    {
      "inputs": [],
      "name": "totalSupply",
      "outputs": [
        {
          "internalType": "uint256",
          "name": "",
          "type": "uint256"
        }
      ],
      "stateMutability": "view",
      "type": "function"
    },
    {
      "inputs": [
        {
          "internalType": "address",
          "name": "to",
          "type": "address"
        },
        {
          "internalType": "uint256",
          "name": "value",
          "type": "uint256"
        }
      ],
      "name": "transfer",
      "outputs": [
        {
          "internalType": "bool",
          "name": "",
          "type": "bool"
        }
      ],
      "stateMutability": "nonpayable",
      "type": "function"
    },
    {
      "inputs": [
        {
          "internalType": "address",
          "name": "from",
          "type": "address"
        },
        {
          "internalType": "address",
          "name": "to",
          "type": "address"
        },
        {
          "internalType": "uint256",
          "name": "value",
          "type": "uint256"
        }
      ],
      "name": "transferFrom",
      "outputs": [
        {
          "internalType": "bool",
          "name": "",
          "type": "bool"
        }
      ],
      "stateMutability": "nonpayable",
      "type": "function"
    },
    {
      "inputs": [
        {
          "internalType": "uint256",
          "name": "assets",
          "type": "uint256"
        },
        {
          "internalType": "address",
          "name": "receiver",
          "type": "address"
        },
        {
          "internalType": "address",
          "name": "owner",
          "type": "address"
        }
      ],
      "name": "withdraw",
      "outputs": [
        {
          "internalType": "uint256",
          "name": "",
          "type": "uint256"
        }
      ],
      "stateMutability": "nonpayable",
      "type": "function"
    }
  ],
  "bytecode": "0x60c06040523480156200001157600080fd5b506040516200177e3803806200177e8339810160408190526200003491620001dc565b806040518060400160405280600b81526020016a455243343632364d6f636b60a81b8152506040518060400160405280600681526020016545343632364d60d01b8152508160039081620000899190620002b3565b506004620000988282620002b3565b505050600080620000af83620000f760201b60201c565b9150915081620000c1576012620000c3565b805b60ff1660a05250506001600160a01b03908116608052600580546001600160a01b03191692909116919091179055620003ca565b60408051600481526024810182526020810180516001600160e01b031663313ce56760e01b17905290516000918291829182916001600160a01b0387169162000140916200037f565b600060405180830381855afa9150503d80600081146200017d576040519150601f19603f3d011682016040523d82523d6000602084013e62000182565b606091505b50915091508180156200019757506020815110155b15620001cf57600081806020019051810190620001b59190620003b0565b905060ff8111620001cd576001969095509350505050565b505b5060009485945092505050565b600060208284031215620001ef57600080fd5b81516001600160a01b03811681146200020757600080fd5b9392505050565b634e487b7160e01b600052604160045260246000fd5b600181811c908216806200023957607f821691505b6020821081036200025a57634e487b7160e01b600052602260045260246000fd5b50919050565b601f821115620002ae57600081815260208120601f850160051c81016020861015620002895750805b601f850160051c820191505b81811015620002aa5782815560010162000295565b5050505b505050565b81516001600160401b03811115620002cf57620002cf6200020e565b620002e781620002e0845462000224565b8462000260565b602080601f8311600181146200031f5760008415620003065750858301515b600019600386901b1c1916600185901b178555620002aa565b600085815260208120601f198616915b8281101562000350578886015182559484019460019091019084016200032f565b50858210156200036f5787850151600019600388901b60f8161c191681555b5050505050600190811b01905550565b6000825160005b81811015620003a2576020818601810151858301520162000386565b506000920191825250919050565b600060208284031215620003c357600080fd5b5051919050565b60805160a05161137962000405600039600061059e0152600081816102790152818161042e015281816108cd01526109c301526113796000f3fe608060405234801561001057600080fd5b50600436106101c45760003560e01c806394bf804d116100f9578063c63d75b611610097578063d905777e11610071578063d905777e146103b7578063dd62ed3e146103ca578063ef8b30f714610391578063f4b9fa751461040357600080fd5b8063c63d75b6146102b1578063c6e6f59214610391578063ce96cb77146103a457600080fd5b8063a9059cbb116100d3578063a9059cbb14610345578063b3d7f6b914610358578063b460af941461036b578063ba0876521461037e57600080fd5b806394bf804d1461031757806395d89b411461032a5780639dc29fac1461033257600080fd5b8063313ce5671161016657806340c10f191161014057806340c10f19146102c65780634cdad506146101f95780636e553f65146102db57806370a08231146102ee57600080fd5b8063313ce5671461025d57806338d52e0f14610277578063402d267d146102b157600080fd5b8063095ea7b3116101a2578063095ea7b31461020c5780630a28a4771461022f57806318160ddd1461024257806323b872dd1461024a57600080fd5b806301e1d114146101c957806306fdde03146101e457806307a2d13a146101f9575b600080fd5b6101d1610416565b6040519081526020015b60405180910390f35b6101ec6104a6565b6040516101db9190610f85565b6101d1610207366004610fb8565b610538565b61021f61021a366004610fed565b61054b565b60405190151581526020016101db565b6101d161023d366004610fb8565b610563565b6002546101d1565b61021f610258366004611017565b610570565b610265610596565b60405160ff90911681526020016101db565b7f00000000000000000000000000000000000000000000000000000000000000005b6040516001600160a01b0390911681526020016101db565b6101d16102bf366004611053565b5060001990565b6102d96102d4366004610fed565b6105c2565b005b6101d16102e936600461106e565b6105d0565b6101d16102fc366004611053565b6001600160a01b031660009081526020819052604090205490565b6101d161032536600461106e565b610604565b6101ec610622565b6102d9610340366004610fed565b610631565b61021f610353366004610fed565b61063b565b6101d1610366366004610fb8565b610649565b6101d161037936600461109a565b610656565b6101d161038c36600461109a565b6106ae565b6101d161039f366004610fb8565b6106fd565b6101d16103b2366004611053565b61070a565b6101d16103c5366004611053565b61072e565b6101d16103d83660046110d6565b6001600160a01b03918216600090815260016020908152604080832093909416825291909152205490565b600554610299906001600160a01b031681565b6040516370a0823160e01b81523060048201526000907f00000000000000000000000000000000000000000000000000000000000000006001600160a01b0316906370a0823190602401602060405180830381865afa15801561047d573d6000803e3d6000fd5b505050506040513d601f19601f820116820180604052508101906104a19190611100565b905090565b6060600380546104b590611119565b80601f01602080910402602001604051908101604052809291908181526020018280546104e190611119565b801561052e5780601f106105035761010080835404028352916020019161052e565b820191906000526020600020905b81548152906001019060200180831161051157829003601f168201915b5050505050905090565b600061054582600061074c565b92915050565b600033610559818585610786565b5060019392505050565b6000610545826001610798565b60003361057e8582856107c8565b610589858585610833565b60019150505b9392505050565b60006104a1817f0000000000000000000000000000000000000000000000000000000000000000611169565b6105cc8282610892565b5050565b60006000196105e3565b60405180910390fd5b60006105ee856106fd565b90506105fc338587846108c8565b949350505050565b6000600019600061061485610649565b90506105fc338583886108c8565b6060600480546104b590611119565b6105cc828261095a565b600033610559818585610833565b600061054582600161074c565b6000806106628361070a565b90508085111561068b57828582604051633fa733bb60e21b81526004016105da93929190611182565b600061069686610563565b90506106a53386868985610990565b95945050505050565b6000806106ba8361072e565b9050808511156106e357828582604051632e52afbb60e21b81526004016105da93929190611182565b60006106ee86610538565b90506106a5338686848a610990565b6000610545826000610798565b6001600160a01b03811660009081526020819052604081205461054590600061074c565b6001600160a01b038116600090815260208190526040812054610545565b600061058f610759610416565b6107649060016111a3565b6107706000600a61129a565b60025461077d91906111a3565b85919085610a50565b6107938383836001610a9f565b505050565b600061058f6107a882600a61129a565b6002546107b591906111a3565b6107bd610416565b61077d9060016111a3565b6001600160a01b03838116600090815260016020908152604080832093861683529290522054600019811461082d578181101561081e57828183604051637dc7a0d960e11b81526004016105da93929190611182565b61082d84848484036000610a9f565b50505050565b6001600160a01b03831661085d57604051634b637e8f60e11b8152600060048201526024016105da565b6001600160a01b0382166108875760405163ec442f0560e01b8152600060048201526024016105da565b610793838383610b66565b6001600160a01b0382166108bc5760405163ec442f0560e01b8152600060048201526024016105da565b6105cc60008383610b66565b6108f47f0000000000000000000000000000000000000000000000000000000000000000853085610c7d565b6108fe8382610892565b826001600160a01b0316846001600160a01b03167fdcbc1c05240f31ff3ad067ef1ee35ce4997762752e3a095284754544f4c709d7848460405161094c929190918252602082015260400190565b60405180910390a350505050565b6001600160a01b03821661098457604051634b637e8f60e11b8152600060048201526024016105da565b6105cc82600083610b66565b826001600160a01b0316856001600160a01b0316146109b4576109b48386836107c8565b6109be838261095a565b6109e97f00000000000000000000000000000000000000000000000000000000000000008584610ce4565b826001600160a01b0316846001600160a01b0316866001600160a01b03167ffbde797d201c681b91056529119e0b02407c7bb96a4a2c75c01fc9667232c8db8585604051610a41929190918252602082015260400190565b60405180910390a45050505050565b600080610a5e868686610d15565b9050610a6983610dd9565b8015610a85575060008480610a8057610a806112a9565b868809115b156106a557610a956001826111a3565b9695505050505050565b6001600160a01b038416610ac95760405163e602df0560e01b8152600060048201526024016105da565b6001600160a01b038316610af357604051634a1406b160e11b8152600060048201526024016105da565b6001600160a01b038085166000908152600160209081526040808320938716835292905220829055801561082d57826001600160a01b0316846001600160a01b03167f8c5be1e5ebec7d5bd14f71427d1e84f3dd0314c0f7b2291e5b200ac8c7c3b9258460405161094c91815260200190565b6001600160a01b038316610b91578060026000828254610b8691906111a3565b90915550610bf09050565b6001600160a01b03831660009081526020819052604090205481811015610bd15783818360405163391434e360e21b81526004016105da93929190611182565b6001600160a01b03841660009081526020819052604090209082900390555b6001600160a01b038216610c0c57600280548290039055610c2b565b6001600160a01b03821660009081526020819052604090208054820190555b816001600160a01b0316836001600160a01b03167fddf252ad1be2c89b69c2b068fc378daa952ba7f163c4a11628f55a4df523b3ef83604051610c7091815260200190565b60405180910390a3505050565b6040516001600160a01b03848116602483015283811660448301526064820183905261082d9186918216906323b872dd906084015b604051602081830303815290604052915060e01b6020820180516001600160e01b038381831617835250505050610e06565b6040516001600160a01b0383811660248301526044820183905261079391859182169063a9059cbb90606401610cb2565b6000838302816000198587098281108382030391505080600003610d4c57838281610d4257610d426112a9565b049250505061058f565b808411610d6c5760405163227bc15360e01b815260040160405180910390fd5b6000848688096000868103871696879004966002600389028118808a02820302808a02820302808a02820302808a02820302808a02820302808a02909103029181900381900460010186841190950394909402919094039290920491909117919091029150509392505050565b60006002826003811115610def57610def6112bf565b610df991906112d5565b60ff166001149050919050565b6000610e1b6001600160a01b03841683610e69565b90508051600014158015610e40575080806020019051810190610e3e9190611305565b155b1561079357604051635274afe760e01b81526001600160a01b03841660048201526024016105da565b606061058f8383600084600080856001600160a01b03168486604051610e8f9190611327565b60006040518083038185875af1925050503d8060008114610ecc576040519150601f19603f3d011682016040523d82523d6000602084013e610ed1565b606091505b5091509150610a95868383606082610ef157610eec82610f38565b61058f565b8151158015610f0857506001600160a01b0384163b155b15610f3157604051639996b31560e01b81526001600160a01b03851660048201526024016105da565b508061058f565b805115610f485780518082602001fd5b604051630a12f52160e11b815260040160405180910390fd5b60005b83811015610f7c578181015183820152602001610f64565b50506000910152565b6020815260008251806020840152610fa4816040850160208701610f61565b601f01601f19169190910160400192915050565b600060208284031215610fca57600080fd5b5035919050565b80356001600160a01b0381168114610fe857600080fd5b919050565b6000806040838503121561100057600080fd5b61100983610fd1565b946020939093013593505050565b60008060006060848603121561102c57600080fd5b61103584610fd1565b925061104360208501610fd1565b9150604084013590509250925092565b60006020828403121561106557600080fd5b61058f82610fd1565b6000806040838503121561108157600080fd5b8235915061109160208401610fd1565b90509250929050565b6000806000606084860312156110af57600080fd5b833592506110bf60208501610fd1565b91506110cd60408501610fd1565b90509250925092565b600080604083850312156110e957600080fd5b6110f283610fd1565b915061109160208401610fd1565b60006020828403121561111257600080fd5b5051919050565b600181811c9082168061112d57607f821691505b60208210810361114d57634e487b7160e01b600052602260045260246000fd5b50919050565b634e487b7160e01b600052601160045260246000fd5b60ff818116838216019081111561054557610545611153565b6001600160a01b039390931683526020830191909152604082015260600190565b8082018082111561054557610545611153565b600181815b808511156111f15781600019048211156111d7576111d7611153565b808516156111e457918102915b93841c93908002906111bb565b509250929050565b60008261120857506001610545565b8161121557506000610545565b816001811461122b576002811461123557611251565b6001915050610545565b60ff84111561124657611246611153565b50506001821b610545565b5060208310610133831016604e8410600b8410161715611274575081810a610545565b61127e83836111b6565b806000190482111561129257611292611153565b029392505050565b600061058f60ff8416836111f9565b634e487b7160e01b600052601260045260246000fd5b634e487b7160e01b600052602160045260246000fd5b600060ff8316806112f657634e487b7160e01b600052601260045260246000fd5b8060ff84160691505092915050565b60006020828403121561131757600080fd5b8151801515811461058f57600080fd5b60008251611339818460208701610f61565b919091019291505056fea264697066735822122026791e17017fcf7e2b81e421e322d7d767607eca6b1221fbf54e04d2ec64975a64736f6c63430008140033",
  "linkReferences": {},
  "deployedLinkReferences": {}
}