{
  "_format": "hh-sol-artifact-1",
  "contractName": "UniswapRouterMock",
  "sourceName": "contracts/mock/uniswap/router.sol",
  "abi": [
    {
      "inputs": [
        {
          "components": [
            {
              "internalType": "address",
              "name": "tokenIn",
              "type": "address"
            },
            {
              "internalType": "address",
              "name": "tokenOut",
              "type": "address"
            },
            {
              "internalType": "uint24",
              "name": "fee",
              "type": "uint24"
            },
            {
              "internalType": "address",
              "name": "recipient",
              "type": "address"
            },
            {
              "internalType": "uint256",
              "name": "deadline",
              "type": "uint256"
            },
            {
              "internalType": "uint256",
              "name": "amountIn",
              "type": "uint256"
            },
            {
              "internalType": "uint256",
              "name": "amountOutMinimum",
              "type": "uint256"
            },
            {
              "internalType": "uint160",
              "name": "sqrtPriceLimitX96",
              "type": "uint160"
            }
          ],
          "internalType": "struct IMinimalSwapRouter.ExactInputSingleParams",
          "name": "params",
          "type": "tuple"
        }
      ],
      "name": "exactInputSingle",
      "outputs": [
        {
          "internalType": "uint256",
          "name": "amountOut",
          "type": "uint256"
        }
      ],
      "stateMutability": "payable",
      "type": "function"
    },
    {
      "inputs": [
        {
          "components": [
            {
              "internalType": "address",
              "name": "tokenIn",
              "type": "address"
            },
            {
              "internalType": "address",
              "name": "tokenOut",
              "type": "address"
            },
            {
              "internalType": "uint24",
              "name": "fee",
              "type": "uint24"
            },
            {
              "internalType": "address",
              "name": "recipient",
              "type": "address"
            },
            {
              "internalType": "uint256",
              "name": "deadline",
              "type": "uint256"
            },
            {
              "internalType": "uint256",
              "name": "amountOut",
              "type": "uint256"
            },
            {
              "internalType": "uint256",
              "name": "amountInMaximum",
              "type": "uint256"
            },
            {
              "internalType": "uint160",
              "name": "sqrtPriceLimitX96",
              "type": "uint160"
            }
          ],
          "internalType": "struct IMinimalSwapRouter.ExactOutputSingleParams",
          "name": "params",
          "type": "tuple"
        }
      ],
      "name": "exactOutputSingle",
      "outputs": [
        {
          "internalType": "uint256",
          "name": "amountIn",
          "type": "uint256"
        }
      ],
      "stateMutability": "payable",
      "type": "function"
    },
    {
      "inputs": [
        {
          "internalType": "address",
          "name": "",
          "type": "address"
        },
        {
          "internalType": "address",
          "name": "",
          "type": "address"
        }
      ],
      "name": "exchangeRates",
      "outputs": [
        {
          "internalType": "uint256",
          "name": "",
          "type": "uint256"
        }
      ],
      "stateMutability": "view",
      "type": "function"
    },
    {
      "inputs": [
        {
          "internalType": "address",
          "name": "tokenIn",
          "type": "address"
        },
        {
          "internalType": "address",
          "name": "tokenOut",
          "type": "address"
        },
        {
          "internalType": "uint256",
          "name": "rate",
          "type": "uint256"
        }
      ],
      "name": "setExchangeRate",
      "outputs": [],
      "stateMutability": "nonpayable",
      "type": "function"
    }
  ],
  "bytecode": "0x608060405234801561001057600080fd5b50610806806100206000396000f3fe60806040526004361061003f5760003560e01c8063414bf38914610044578063503fa44f14610069578063782aaeea1461009e578063db3e2198146100c0575b600080fd5b610057610052366004610578565b6100d3565b60405190815260200160405180910390f35b34801561007557600080fd5b506100576100843660046105b3565b600060208181529281526040808220909352908152205481565b3480156100aa57600080fd5b506100be6100b93660046105e6565b61031a565b005b6100576100ce366004610578565b61038a565b60006100e26020830183610622565b6040516323b872dd60e01b815233600482015230602482015260a084013560448201526001600160a01b0391909116906323b872dd906064016020604051808303816000875af115801561013a573d6000803e3d6000fd5b505050506040513d601f19601f8201168201806040525081019061015e919061063d565b6101835760405162461bcd60e51b815260040161017a9061065f565b60405180910390fd5b670de0b6b3a764000060008061019c6020860186610622565b6001600160a01b03166001600160a01b0316815260200190815260200160002060008460200160208101906101d19190610622565b6001600160a01b031681526020810191909152604001600020546101f99060a085013561069e565b61020391906106bb565b90508160c001358110156102595760405162461bcd60e51b815260206004820152601a60248201527f496e73756666696369656e74206f757470757420616d6f756e74000000000000604482015260640161017a565b6102696040830160208401610622565b6001600160a01b031663a9059cbb6102876080850160608601610622565b6040516001600160e01b031960e084901b1681526001600160a01b039091166004820152602481018490526044015b6020604051808303816000875af11580156102d5573d6000803e3d6000fd5b505050506040513d601f19601f820116820180604052508101906102f9919061063d565b6103155760405162461bcd60e51b815260040161017a9061065f565b919050565b6001600160a01b03808416600090815260208181526040808320938616835292905220819055806103546002670de0b6b3a76400006107c1565b61035e91906106bb565b6001600160a01b0392831660009081526020818152604080832096909516825294909452919092205550565b6000808061039b6020850185610622565b6001600160a01b03166001600160a01b0316815260200190815260200160002060008360200160208101906103d09190610622565b6001600160a01b03168152602081019190915260400160002054610400670de0b6b3a764000060a085013561069e565b61040a91906106bb565b90508160c001358111156104595760405162461bcd60e51b8152602060048201526016602482015275115e18d95cdcda5d99481a5b9c1d5d08185b5bdd5b9d60521b604482015260640161017a565b6104666020830183610622565b6040516323b872dd60e01b8152336004820152306024820152604481018390526001600160a01b0391909116906323b872dd906064016020604051808303816000875af11580156104bb573d6000803e3d6000fd5b505050506040513d601f19601f820116820180604052508101906104df919061063d565b6104fb5760405162461bcd60e51b815260040161017a9061065f565b61050b6040830160208401610622565b6001600160a01b031663a9059cbb6105296080850160608601610622565b6040516001600160e01b031960e084901b1681526001600160a01b03909116600482015260a085013560248201526044016102b6565b6000610100828403121561057257600080fd5b50919050565b6000610100828403121561058b57600080fd5b610595838361055f565b9392505050565b80356001600160a01b038116811461031557600080fd5b600080604083850312156105c657600080fd5b6105cf8361059c565b91506105dd6020840161059c565b90509250929050565b6000806000606084860312156105fb57600080fd5b6106048461059c565b92506106126020850161059c565b9150604084013590509250925092565b60006020828403121561063457600080fd5b6105958261059c565b60006020828403121561064f57600080fd5b8151801515811461059557600080fd5b6020808252600f908201526e151c985b9cd9995c8819985a5b1959608a1b604082015260600190565b634e487b7160e01b600052601160045260246000fd5b80820281158282048414176106b5576106b5610688565b92915050565b6000826106d857634e487b7160e01b600052601260045260246000fd5b500490565b600181815b808511156107185781600019048211156106fe576106fe610688565b8085161561070b57918102915b93841c93908002906106e2565b509250929050565b60008261072f575060016106b5565b8161073c575060006106b5565b8160018114610752576002811461075c57610778565b60019150506106b5565b60ff84111561076d5761076d610688565b50506001821b6106b5565b5060208310610133831016604e8410600b841016171561079b575081810a6106b5565b6107a583836106dd565b80600019048211156107b9576107b9610688565b029392505050565b600061059560ff84168361072056fea2646970667358221220b133b39b805a512d36f3ce09e4e00e3d0f382fc13a8c21e9bb1d1c04630c257264736f6c63430008140033",
  "linkReferences": {},
  "deployedLinkReferences": {}
}