{
  "_format": "hh-sol-artifact-1",
  "contractName": "Messaging",
  "sourceName": "contracts/lib/Messaging.sol",
  "abi": [
    {
      "inputs": [],
      "name": "starknetCore",
      "outputs": [
        {
          "internalType": "contract IStarknetMessaging",
          "name": "",
          "type": "address"
        }
      ],
      "stateMutability": "view",
      "type": "function"
    }
  ],
  "bytecode": "0x6080604052348015600f57600080fd5b5060918061001e6000396000f3fe6080604052348015600f57600080fd5b506004361060285760003560e01c806339e730ab14602d575b600080fd5b600054603f906001600160a01b031681565b6040516001600160a01b03909116815260200160405180910390f3fea2646970667358221220c5746902fa0a5965a8fa787389ed2b0a9e095a1c5ed1d0216a4caa613701168864736f6c63430008140033",
  "linkReferences": {},
  "deployedLinkReferences": {}
}