{
  "address": "0xe3A697d9730F6211AaA057aA03C3b496a62beb08",
  "abi": [
    {
      "inputs": [],
      "stateMutability": "nonpayable",
      "type": "constructor"
    },
    {
      "inputs": [],
      "name": "AccessControlBadConfirmation",
      "type": "error"
    },
    {
      "inputs": [
        {
          "internalType": "address",
          "name": "account",
          "type": "address"
        },
        {
          "internalType": "bytes32",
          "name": "neededRole",
          "type": "bytes32"
        }
      ],
      "name": "AccessControlUnauthorizedAccount",
      "type": "error"
    },
    {
      "inputs": [
        {
          "internalType": "address",
          "name": "target",
          "type": "address"
        }
      ],
      "name": "AddressEmptyCode",
      "type": "error"
    },
    {
      "inputs": [
        {
          "internalType": "address",
          "name": "implementation",
          "type": "address"
        }
      ],
      "name": "ERC1967InvalidImplementation",
      "type": "error"
    },
    {
      "inputs": [],
      "name": "ERC1967NonPayable",
      "type": "error"
    },
    {
      "inputs": [],
      "name": "EnforcedPause",
      "type": "error"
    },
    {
      "inputs": [],
      "name": "ExpectedPause",
      "type": "error"
    },
    {
      "inputs": [],
      "name": "FailedInnerCall",
      "type": "error"
    },
    {
      "inputs": [],
      "name": "InvalidInitialization",
      "type": "error"
    },
    {
      "inputs": [],
      "name": "InvalidPoolingManager",
      "type": "error"
    },
    {
      "inputs": [],
      "name": "NoL1Report",
      "type": "error"
    },
    {
      "inputs": [],
      "name": "NotEnoughSuccessCalls",
      "type": "error"
    },
    {
      "inputs": [],
      "name": "NotInitializing",
      "type": "error"
    },
    {
      "inputs": [],
      "name": "ReentrancyGuardReentrantCall",
      "type": "error"
    },
    {
      "inputs": [],
      "name": "UUPSUnauthorizedCallContext",
      "type": "error"
    },
    {
      "inputs": [
        {
          "internalType": "bytes32",
          "name": "slot",
          "type": "bytes32"
        }
      ],
      "name": "UUPSUnsupportedProxiableUUID",
      "type": "error"
    },
    {
      "inputs": [],
      "name": "ZeroAddress",
      "type": "error"
    },
    {
      "anonymous": false,
      "inputs": [
        {
          "indexed": false,
          "internalType": "address",
          "name": "l1BridgeAddress",
          "type": "address"
        },
        {
          "indexed": false,
          "internalType": "uint256",
          "name": "amount",
          "type": "uint256"
        },
        {
          "indexed": false,
          "internalType": "uint256",
          "name": "nonce",
          "type": "uint256"
        }
      ],
      "name": "BridgeCancelDepositRequestClaimedAndDeposited",
      "type": "event"
    },
    {
      "anonymous": false,
      "inputs": [
        {
          "indexed": false,
          "internalType": "address",
          "name": "l1BridgeAddress",
          "type": "address"
        },
        {
          "indexed": false,
          "internalType": "uint256",
          "name": "amount",
          "type": "uint256"
        },
        {
          "indexed": false,
          "internalType": "uint256",
          "name": "nonce",
          "type": "uint256"
        }
      ],
      "name": "CancelDepositRequestBridgeSent",
      "type": "event"
    },
    {
      "anonymous": false,
      "inputs": [
        {
          "indexed": false,
          "internalType": "uint64",
          "name": "version",
          "type": "uint64"
        }
      ],
      "name": "Initialized",
      "type": "event"
    },
    {
      "anonymous": false,
      "inputs": [],
      "name": "MessageResentToL2",
      "type": "event"
    },
    {
      "anonymous": false,
      "inputs": [
        {
          "indexed": false,
          "internalType": "address",
          "name": "account",
          "type": "address"
        }
      ],
      "name": "Paused",
      "type": "event"
    },
    {
      "anonymous": false,
      "inputs": [
        {
          "indexed": false,
          "internalType": "uint256[]",
          "name": "indices",
          "type": "uint256[]"
        }
      ],
      "name": "PendingRequestsExecuted",
      "type": "event"
    },
    {
      "anonymous": false,
      "inputs": [
        {
          "indexed": false,
          "internalType": "uint256",
          "name": "epoch",
          "type": "uint256"
        },
        {
          "indexed": false,
          "internalType": "uint256",
          "name": "strategyReportL1Length",
          "type": "uint256"
        },
        {
          "components": [
            {
              "internalType": "address",
              "name": "l1Strategy",
              "type": "address"
            },
            {
              "internalType": "uint256",
              "name": "l1Nav",
              "type": "uint256"
            },
            {
              "internalType": "uint256",
              "name": "amount",
              "type": "uint256"
            }
          ],
          "indexed": false,
          "internalType": "struct StrategyReportL1[]",
          "name": "strategyReportL1",
          "type": "tuple[]"
        }
      ],
      "name": "ReportHandled",
      "type": "event"
    },
    {
      "anonymous": false,
      "inputs": [
        {
          "indexed": true,
          "internalType": "bytes32",
          "name": "role",
          "type": "bytes32"
        },
        {
          "indexed": true,
          "internalType": "bytes32",
          "name": "previousAdminRole",
          "type": "bytes32"
        },
        {
          "indexed": true,
          "internalType": "bytes32",
          "name": "newAdminRole",
          "type": "bytes32"
        }
      ],
      "name": "RoleAdminChanged",
      "type": "event"
    },
    {
      "anonymous": false,
      "inputs": [
        {
          "indexed": true,
          "internalType": "bytes32",
          "name": "role",
          "type": "bytes32"
        },
        {
          "indexed": true,
          "internalType": "address",
          "name": "account",
          "type": "address"
        },
        {
          "indexed": true,
          "internalType": "address",
          "name": "sender",
          "type": "address"
        }
      ],
      "name": "RoleGranted",
      "type": "event"
    },
    {
      "anonymous": false,
      "inputs": [
        {
          "indexed": true,
          "internalType": "bytes32",
          "name": "role",
          "type": "bytes32"
        },
        {
          "indexed": true,
          "internalType": "address",
          "name": "account",
          "type": "address"
        },
        {
          "indexed": true,
          "internalType": "address",
          "name": "sender",
          "type": "address"
        }
      ],
      "name": "RoleRevoked",
      "type": "event"
    },
    {
      "anonymous": false,
      "inputs": [
        {
          "indexed": false,
          "internalType": "address",
          "name": "strategy",
          "type": "address"
        },
        {
          "components": [
            {
              "internalType": "address",
              "name": "underlying",
              "type": "address"
            },
            {
              "internalType": "address",
              "name": "bridge",
              "type": "address"
            }
          ],
          "indexed": false,
          "internalType": "struct StrategyInfo",
          "name": "strategyInfo",
          "type": "tuple"
        }
      ],
      "name": "StrategyRegistered",
      "type": "event"
    },
    {
      "anonymous": false,
      "inputs": [
        {
          "indexed": false,
          "internalType": "address",
          "name": "account",
          "type": "address"
        }
      ],
      "name": "Unpaused",
      "type": "event"
    },
    {
      "anonymous": false,
      "inputs": [
        {
          "indexed": true,
          "internalType": "address",
          "name": "implementation",
          "type": "address"
        }
      ],
      "name": "Upgraded",
      "type": "event"
    },
    {
      "stateMutability": "payable",
      "type": "fallback"
    },
    {
      "inputs": [],
      "name": "DEFAULT_ADMIN_ROLE",
      "outputs": [
        {
          "internalType": "bytes32",
          "name": "",
          "type": "bytes32"
        }
      ],
      "stateMutability": "view",
      "type": "function"
    },
    {
      "inputs": [],
      "name": "L2_HANDLER_SELECTOR",
      "outputs": [
        {
          "internalType": "uint256",
          "name": "",
          "type": "uint256"
        }
      ],
      "stateMutability": "view",
      "type": "function"
    },
    {
      "inputs": [],
      "name": "RELAYER_ROLE",
      "outputs": [
        {
          "internalType": "bytes32",
          "name": "",
          "type": "bytes32"
        }
      ],
      "stateMutability": "view",
      "type": "function"
    },
    {
      "inputs": [],
      "name": "UPGRADE_INTERFACE_VERSION",
      "outputs": [
        {
          "internalType": "string",
          "name": "",
          "type": "string"
        }
      ],
      "stateMutability": "view",
      "type": "function"
    },
    {
      "inputs": [],
      "name": "batchCounter",
      "outputs": [
        {
          "internalType": "uint256",
          "name": "",
          "type": "uint256"
        }
      ],
      "stateMutability": "view",
      "type": "function"
    },
    {
      "inputs": [
        {
          "components": [
            {
              "internalType": "address",
              "name": "bridge",
              "type": "address"
            },
            {
              "internalType": "uint256",
              "name": "amount",
              "type": "uint256"
            }
          ],
          "internalType": "struct BridgeInteractionInfo[]",
          "name": "bridgeDepositInfo",
          "type": "tuple[]"
        }
      ],
      "name": "bridgeEthFeesMultiplicator",
      "outputs": [
        {
          "internalType": "uint256",
          "name": "",
          "type": "uint256"
        }
      ],
      "stateMutability": "view",
      "type": "function"
    },
    {
      "inputs": [
        {
          "internalType": "address",
          "name": "l1BridgeAddress",
          "type": "address"
        },
        {
          "internalType": "uint256",
          "name": "amount",
          "type": "uint256"
        },
        {
          "internalType": "uint256",
          "name": "nonce",
          "type": "uint256"
        }
      ],
      "name": "cancelDepositRequestBridge",
      "outputs": [],
      "stateMutability": "nonpayable",
      "type": "function"
    },
    {
      "inputs": [
        {
          "internalType": "address",
          "name": "l1BridgeAddress",
          "type": "address"
        },
        {
          "internalType": "uint256",
          "name": "amount",
          "type": "uint256"
        },
        {
          "internalType": "uint256",
          "name": "nonce",
          "type": "uint256"
        },
        {
          "internalType": "uint256",
          "name": "l2BridgeEthFee",
          "type": "uint256"
        }
      ],
      "name": "claimBridgeCancelDepositRequestAndDeposit",
      "outputs": [],
      "stateMutability": "payable",
      "type": "function"
    },
    {
      "inputs": [],
      "name": "ethBridge",
      "outputs": [
        {
          "internalType": "address",
          "name": "",
          "type": "address"
        }
      ],
      "stateMutability": "view",
      "type": "function"
    },
    {
      "inputs": [],
      "name": "ethWrapped",
      "outputs": [
        {
          "internalType": "address",
          "name": "",
          "type": "address"
        }
      ],
      "stateMutability": "view",
      "type": "function"
    },
    {
      "inputs": [],
      "name": "executePendingRequests",
      "outputs": [],
      "stateMutability": "nonpayable",
      "type": "function"
    },
    {
      "inputs": [
        {
          "internalType": "bytes32",
          "name": "role",
          "type": "bytes32"
        }
      ],
      "name": "getRoleAdmin",
      "outputs": [
        {
          "internalType": "bytes32",
          "name": "",
          "type": "bytes32"
        }
      ],
      "stateMutability": "view",
      "type": "function"
    },
    {
      "inputs": [
        {
          "internalType": "bytes32",
          "name": "role",
          "type": "bytes32"
        },
        {
          "internalType": "address",
          "name": "account",
          "type": "address"
        }
      ],
      "name": "grantRole",
      "outputs": [],
      "stateMutability": "nonpayable",
      "type": "function"
    },
    {
      "inputs": [
        {
          "internalType": "uint256",
          "name": "epoch",
          "type": "uint256"
        },
        {
          "components": [
            {
              "internalType": "address",
              "name": "bridge",
              "type": "address"
            },
            {
              "internalType": "uint256",
              "name": "amount",
              "type": "uint256"
            }
          ],
          "internalType": "struct BridgeInteractionInfo[]",
          "name": "bridgeWithdrawInfo",
          "type": "tuple[]"
        },
        {
          "components": [
            {
              "internalType": "address",
              "name": "l1Strategy",
              "type": "address"
            },
            {
              "internalType": "uint256",
              "name": "actionId",
              "type": "uint256"
            },
            {
              "internalType": "uint256",
              "name": "amount",
              "type": "uint256"
            }
          ],
          "internalType": "struct StrategyReportL2[]",
          "name": "strategyReportL2",
          "type": "tuple[]"
        },
        {
          "components": [
            {
              "internalType": "address",
              "name": "bridge",
              "type": "address"
            },
            {
              "internalType": "uint256",
              "name": "amount",
              "type": "uint256"
            }
          ],
          "internalType": "struct BridgeInteractionInfo[]",
          "name": "bridgeDepositInfo",
          "type": "tuple[]"
        },
        {
          "internalType": "uint256",
          "name": "l2BridgeEthFee",
          "type": "uint256"
        },
        {
          "internalType": "uint256",
          "name": "l2MessagingEthFee",
          "type": "uint256"
        },
        {
          "internalType": "uint256",
          "name": "minSuccessCall",
          "type": "uint256"
        }
      ],
      "name": "handleReport",
      "outputs": [],
      "stateMutability": "payable",
      "type": "function"
    },
    {
      "inputs": [
        {
          "internalType": "bytes32",
          "name": "role",
          "type": "bytes32"
        },
        {
          "internalType": "address",
          "name": "account",
          "type": "address"
        }
      ],
      "name": "hasRole",
      "outputs": [
        {
          "internalType": "bool",
          "name": "",
          "type": "bool"
        }
      ],
      "stateMutability": "view",
      "type": "function"
    },
    {
      "inputs": [
        {
          "internalType": "uint256",
          "name": "strategyReportL1Length",
          "type": "uint256"
        },
        {
          "components": [
            {
              "internalType": "address",
              "name": "l1Strategy",
              "type": "address"
            },
            {
              "internalType": "uint256",
              "name": "l1Nav",
              "type": "uint256"
            },
            {
              "internalType": "uint256",
              "name": "amount",
              "type": "uint256"
            }
          ],
          "internalType": "struct StrategyReportL1[]",
          "name": "strategyReportL1",
          "type": "tuple[]"
        }
      ],
      "name": "hashFromReportL1",
      "outputs": [
        {
          "internalType": "uint256",
          "name": "",
          "type": "uint256"
        }
      ],
      "stateMutability": "pure",
      "type": "function"
    },
    {
      "inputs": [
        {
          "internalType": "uint256",
          "name": "epoch",
          "type": "uint256"
        },
        {
          "components": [
            {
              "internalType": "address",
              "name": "bridge",
              "type": "address"
            },
            {
              "internalType": "uint256",
              "name": "amount",
              "type": "uint256"
            }
          ],
          "internalType": "struct BridgeInteractionInfo[]",
          "name": "bridgeWithdrawInfo",
          "type": "tuple[]"
        },
        {
          "components": [
            {
              "internalType": "address",
              "name": "l1Strategy",
              "type": "address"
            },
            {
              "internalType": "uint256",
              "name": "actionId",
              "type": "uint256"
            },
            {
              "internalType": "uint256",
              "name": "amount",
              "type": "uint256"
            }
          ],
          "internalType": "struct StrategyReportL2[]",
          "name": "strategyReportL2",
          "type": "tuple[]"
        },
        {
          "components": [
            {
              "internalType": "address",
              "name": "bridge",
              "type": "address"
            },
            {
              "internalType": "uint256",
              "name": "amount",
              "type": "uint256"
            }
          ],
          "internalType": "struct BridgeInteractionInfo[]",
          "name": "bridgeDepositInfo",
          "type": "tuple[]"
        }
      ],
      "name": "hashFromReportL2",
      "outputs": [
        {
          "internalType": "uint256",
          "name": "",
          "type": "uint256"
        }
      ],
      "stateMutability": "pure",
      "type": "function"
    },
    {
      "inputs": [
        {
          "internalType": "address",
          "name": "_owner",
          "type": "address"
        },
        {
          "internalType": "uint256",
          "name": "_l2PoolingManager",
          "type": "uint256"
        },
        {
          "internalType": "address",
          "name": "_starknetCore",
          "type": "address"
        },
        {
          "internalType": "address",
          "name": "_relayer",
          "type": "address"
        },
        {
          "internalType": "address",
          "name": "_ethBridge",
          "type": "address"
        },
        {
          "internalType": "address",
          "name": "_ethWrapped",
          "type": "address"
        }
      ],
      "name": "initialize",
      "outputs": [],
      "stateMutability": "nonpayable",
      "type": "function"
    },
    {
      "inputs": [],
      "name": "l2PoolingManager",
      "outputs": [
        {
          "internalType": "uint256",
          "name": "",
          "type": "uint256"
        }
      ],
      "stateMutability": "view",
      "type": "function"
    },
    {
      "inputs": [],
      "name": "pause",
      "outputs": [],
      "stateMutability": "nonpayable",
      "type": "function"
    },
    {
      "inputs": [],
      "name": "paused",
      "outputs": [
        {
          "internalType": "bool",
          "name": "",
          "type": "bool"
        }
      ],
      "stateMutability": "view",
      "type": "function"
    },
    {
      "inputs": [
        {
          "internalType": "uint256",
          "name": "",
          "type": "uint256"
        }
      ],
      "name": "pendingRequests",
      "outputs": [
        {
          "internalType": "address",
          "name": "l1Strategy",
          "type": "address"
        },
        {
          "internalType": "uint256",
          "name": "actionId",
          "type": "uint256"
        },
        {
          "internalType": "uint256",
          "name": "amount",
          "type": "uint256"
        }
      ],
      "stateMutability": "view",
      "type": "function"
    },
    {
      "inputs": [
        {
          "internalType": "uint256",
          "name": "",
          "type": "uint256"
        }
      ],
      "name": "pendingRequestsExecuted",
      "outputs": [
        {
          "internalType": "address",
          "name": "l1Strategy",
          "type": "address"
        },
        {
          "internalType": "uint256",
          "name": "l1Nav",
          "type": "uint256"
        },
        {
          "internalType": "uint256",
          "name": "amount",
          "type": "uint256"
        }
      ],
      "stateMutability": "view",
      "type": "function"
    },
    {
      "inputs": [],
      "name": "pendingRequestsExecutedCounter",
      "outputs": [
        {
          "internalType": "uint256",
          "name": "",
          "type": "uint256"
        }
      ],
      "stateMutability": "view",
      "type": "function"
    },
    {
      "inputs": [],
      "name": "proxiableUUID",
      "outputs": [
        {
          "internalType": "bytes32",
          "name": "",
          "type": "bytes32"
        }
      ],
      "stateMutability": "view",
      "type": "function"
    },
    {
      "inputs": [
        {
          "internalType": "address",
          "name": "_strategy",
          "type": "address"
        },
        {
          "internalType": "address",
          "name": "_underlying",
          "type": "address"
        },
        {
          "internalType": "address",
          "name": "_bridge",
          "type": "address"
        }
      ],
      "name": "registerStrategy",
      "outputs": [],
      "stateMutability": "payable",
      "type": "function"
    },
    {
      "inputs": [
        {
          "internalType": "bytes32",
          "name": "role",
          "type": "bytes32"
        },
        {
          "internalType": "address",
          "name": "callerConfirmation",
          "type": "address"
        }
      ],
      "name": "renounceRole",
      "outputs": [],
      "stateMutability": "nonpayable",
      "type": "function"
    },
    {
      "inputs": [
        {
          "internalType": "bytes32",
          "name": "role",
          "type": "bytes32"
        },
        {
          "internalType": "address",
          "name": "account",
          "type": "address"
        }
      ],
      "name": "revokeRole",
      "outputs": [],
      "stateMutability": "nonpayable",
      "type": "function"
    },
    {
      "inputs": [
        {
          "internalType": "uint256",
          "name": "_l2PoolingManager",
          "type": "uint256"
        }
      ],
      "name": "setPoolingManager",
      "outputs": [],
      "stateMutability": "payable",
      "type": "function"
    },
    {
      "inputs": [],
      "name": "starknetCore",
      "outputs": [
        {
          "internalType": "contract IStarknetMessaging",
          "name": "",
          "type": "address"
        }
      ],
      "stateMutability": "view",
      "type": "function"
    },
    {
      "inputs": [
        {
          "internalType": "address",
          "name": "",
          "type": "address"
        }
      ],
      "name": "strategyInfo",
      "outputs": [
        {
          "internalType": "address",
          "name": "underlying",
          "type": "address"
        },
        {
          "internalType": "address",
          "name": "bridge",
          "type": "address"
        }
      ],
      "stateMutability": "view",
      "type": "function"
    },
    {
      "inputs": [
        {
          "internalType": "bytes4",
          "name": "interfaceId",
          "type": "bytes4"
        }
      ],
      "name": "supportsInterface",
      "outputs": [
        {
          "internalType": "bool",
          "name": "",
          "type": "bool"
        }
      ],
      "stateMutability": "view",
      "type": "function"
    },
    {
      "inputs": [],
      "name": "unpause",
      "outputs": [],
      "stateMutability": "nonpayable",
      "type": "function"
    },
    {
      "inputs": [
        {
          "internalType": "address",
          "name": "newImplementation",
          "type": "address"
        },
        {
          "internalType": "bytes",
          "name": "data",
          "type": "bytes"
        }
      ],
      "name": "upgradeToAndCall",
      "outputs": [],
      "stateMutability": "payable",
      "type": "function"
    },
    {
      "stateMutability": "payable",
      "type": "receive"
    }
  ],
  "transactionHash": "0x7ec6855dfad0116ef848796e8861434550c599364b6fa986b887ebf520eda20a",
  "args": [],
  "numDeployments": 1,
  "solcInputHash": "23c73ce4b0f4a2d5f20335bf138f05d4",
  "bytecode": "0x60a0604052306080523480156200001557600080fd5b507ff0c57e16840df040f15088dc2f81fe391c3923bec73e23a9662efc9c229c6a00805468010000000000000000810460ff1615906001600160401b0316600081158015620000615750825b90506000826001600160401b031660011480156200007e5750303b155b9050811580156200008d575080155b15620000ac5760405163f92ee8a960e01b815260040160405180910390fd5b84546001600160401b03191660011785558315620000db57845460ff60401b1916680100000000000000001785555b83156200012257845460ff60401b19168555604051600181527fc7f505b2f371ae2175ee4913f4499e1f2633a7b5936321eed1cdaeb6115181d29060200160405180910390a15b5050505050608051613809620001516000396000818161180e01528181611837015261197d01526138096000f3fe6080604052600436106101e55760003560e01c80635c975abb116101015780639521005b1161009a578063ad3cb1cc1161006c578063ad3cb1cc14610580578063b7565cec146105be578063c2858ab81461061f578063d547741f1461063f578063ff15665f1461065f57005b80639521005b14610525578063959ec9bb14610538578063a217fddf1461054b578063a2dc2ab71461056057005b80638456cb59116100d35780638456cb59146104ae5780638f3281a4146104c357806391d14854146104e3578063926d7d7f1461050357005b80635c975abb1461043d57806368233eef146104625780636e9cfef1146104785780638201801a1461048e57005b806336568abe1161017e5780633f4ba83a116101505780633f4ba83a146103cd5780633fe6d7ed146103e25780634f1ef2861461040257806352d1902d1461041557806353f709f41461042a57005b806336568abe1461033957806339e730ab146103595780633c652a9a146103795780633ea387731461039957005b80632e8a3eaa116101b75780632e8a3eaa146102a95780632f2ff15d146102bf5780633437f685146102df578063350ae0161461032457005b806301ffc9a7146101ee57806316d6a67f14610223578063248a9ca314610251578063252111c61461027157005b366101ec57005b005b3480156101fa57600080fd5b5061020e610209366004612d4e565b610672565b60405190151581526020015b60405180910390f35b34801561022f57600080fd5b5061024361023e366004612ec7565b6106a9565b60405190815260200161021a565b34801561025d57600080fd5b5061024361026c366004612f21565b61076e565b34801561027d57600080fd5b50600554610291906001600160a01b031681565b6040516001600160a01b03909116815260200161021a565b3480156102b557600080fd5b5061024360085481565b3480156102cb57600080fd5b506101ec6102da366004612f3a565b610790565b3480156102eb57600080fd5b506102ff6102fa366004612f21565b6107b2565b604080516001600160a01b03909416845260208401929092529082015260600161021a565b34801561033057600080fd5b506101ec6107ef565b34801561034557600080fd5b506101ec610354366004612f3a565b610aaa565b34801561036557600080fd5b50600054610291906001600160a01b031681565b34801561038557600080fd5b506102ff610394366004612f21565b610ae2565b3480156103a557600080fd5b506102437f010e13e50cb99b6b3c8270ec6e16acfccbe1164a629d74b43549567a77593aff81565b3480156103d957600080fd5b506101ec610af2565b3480156103ee57600080fd5b506102436103fd366004612ffd565b610b08565b6101ec610410366004613039565b610c26565b34801561042157600080fd5b50610243610c45565b6101ec610438366004612f21565b610c62565b34801561044957600080fd5b506000805160206137b48339815191525460ff1661020e565b34801561046e57600080fd5b5061024360035481565b34801561048457600080fd5b5061024360015481565b34801561049a57600080fd5b506101ec6104a93660046130e0565b610c94565b3480156104ba57600080fd5b506101ec610cfd565b3480156104cf57600080fd5b50600454610291906001600160a01b031681565b3480156104ef57600080fd5b5061020e6104fe366004612f3a565b610d1d565b34801561050f57600080fd5b5061024360008051602061377483398151915281565b6101ec610533366004613115565b610d55565b6101ec610546366004613160565b610f89565b34801561055757600080fd5b50610243600081565b34801561056c57600080fd5b506101ec61057b36600461319b565b61107c565b34801561058c57600080fd5b506105b1604051806040016040528060058152602001640352e302e360dc1b81525081565b60405161021a9190613238565b3480156105ca57600080fd5b506105ff6105d936600461326b565b600260205260009081526040902080546001909101546001600160a01b03918216911682565b604080516001600160a01b0393841681529290911660208301520161021a565b34801561062b57600080fd5b5061024361063a3660046132a8565b61122c565b34801561064b57600080fd5b506101ec61065a366004612f3a565b61141e565b6101ec61066d366004613339565b61143a565b60006001600160e01b03198216637965db0b60e01b14806106a357506301ffc9a760e01b6001600160e01b03198316145b92915050565b60408051600080825260208201909252815b8481101561075e57818482815181106106d6576106d66133e5565b6020026020010151600001516001600160a01b03168583815181106106fd576106fd6133e5565b60200260200101516020015186848151811061071b5761071b6133e5565b60200260200101516040015160405160200161073a94939291906133fb565b6040516020818303038152906040529150808061075690613440565b9150506106bb565b5080516020909101209392505050565b6000908152600080516020613794833981519152602052604090206001015490565b6107998261076e565b6107a281611566565b6107ac8383611570565b50505050565b600781815481106107c257600080fd5b60009182526020909120600390910201805460018201546002909201546001600160a01b03909116925083565b60008051602061377483398151915261080781611566565b6006546000906001600160401b0381111561082457610824612d78565b60405190808252806020026020018201604052801561084d578160200160208202803683370190505b5090506000805b600654811015610a2457600060068281548110610873576108736133e5565b600091825260209182902060408051606081018252600390930290910180546001600160a01b031680845260018201549484018590526002909101548383018190529151632747a90b60e21b815292945092639d1ea42c926108e19290600401918252602082015260400190565b60408051808303816000875af192505050801561091b575060408051601f3d908101601f1916820190925261091891810190613459565b60015b15610a115783868681518110610933576109336133e5565b60209081029190910101528461094881613440565b6040805160608101825286516001600160a01b039081168252602082019687529181019485526007805460018101825560009190915290517fa66cc928b5edb82af9bd49922954155ab7b0942694bea4ce44661d9a8736c688600390920291820180546001600160a01b031916919093161790915593517fa66cc928b5edb82af9bd49922954155ab7b0942694bea4ce44661d9a8736c68985015591517fa66cc928b5edb82af9bd49922954155ab7b0942694bea4ce44661d9a8736c68a909301929092559350505b5080610a1c81613440565b915050610854565b50805b8015610a6d57610a5b600684610a3e60018561347d565b81518110610a4e57610a4e6133e5565b6020026020010151611615565b80610a6581613490565b915050610a27565b507fe38bcae4e841a921b99257dced11c82ca84c658e2ca31cba31712e1e73bdd67b82604051610a9d91906134e2565b60405180910390a1505050565b6001600160a01b0381163314610ad35760405163334bd91960e11b815260040160405180910390fd5b610add8282611727565b505050565b600681815481106107c257600080fd5b6000610afd81611566565b610b056117a3565b50565b600080805b600754811015610c1157600060078281548110610b2c57610b2c6133e5565b600091825260209182902060408051606081018252600390930290910180546001600160a01b03168352600181015493830193909352600290920154918101829052915015610bfe576000805b8651811015610be8576000878281518110610b9657610b966133e5565b60209081029190910181015185516001600160a01b039081166000908152600290935260409092206001015481519193508216911603610bd557600192505b5080610be081613440565b915050610b79565b5080610bfc5783610bf881613440565b9450505b505b5080610c0981613440565b915050610b0d565b50808351610c1f91906134f5565b9392505050565b610c2e611803565b610c37826118aa565b610c4182826118b5565b5050565b6000610c4f611972565b5060008051602061375483398151915290565b6000610c6d81611566565b81600003610c8e5760405163d92e233d60e01b815260040160405180910390fd5b50600155565b6000610c9f81611566565b610cad8460015485856119bb565b604080516001600160a01b0386168152602081018590529081018390527f6bede034b368efac88a4cd28b60aac75bec57160af2185de376fa635b11feceb9060600160405180910390a150505050565b600080516020613774833981519152610d1581611566565b610b05611a30565b6000918252600080516020613794833981519152602090815260408084206001600160a01b0393909316845291905290205460ff1690565b6000610d6081611566565b6001600160a01b038316610d875760405163d92e233d60e01b815260040160405180910390fd5b6001600160a01b038216610dae5760405163d92e233d60e01b815260040160405180910390fd5b6001600160a01b038416610dd55760405163d92e233d60e01b815260040160405180910390fd5b306001600160a01b0316846001600160a01b031663d7f708036040518163ffffffff1660e01b8152600401602060405180830381865afa158015610e1d573d6000803e3d6000fd5b505050506040513d601f19601f82011682018060405250810190610e419190613508565b6001600160a01b031614610e68576040516369fad3d560e11b815260040160405180910390fd5b6040805180820182526001600160a01b0385811680835285821660208085018281528a85166000908152600290925290869020855181549086166001600160a01b031991821617825591516001909101805491909516911617909255925163095ea7b360e01b81526004810191909152600019602482015290919063095ea7b3906044016020604051808303816000875af1158015610f0b573d6000803e3d6000fd5b505050506040513d601f19601f82011682018060405250810190610f2f9190613525565b50604080516001600160a01b03878116825283518116602080840191909152840151168183015290517f0f2e78c238652ca28995bab07b66395e0cc5a777b1780ce9239668de004d33729181900360600190a15050505050565b6000610f9481611566565b610fa2856001548686611a79565b604080516001808252818301909252600091816020015b6040805180820190915260008082526020820152815260200190600190039081610fb95790505090506040518060400160405280876001600160a01b031681526020018681525081600081518110611013576110136133e5565b602002602001018190525061102a81846000611aba565b604080516001600160a01b0388168152602081018790529081018590527fa1a4a9be7c1e6aee7eb583f810e42c075a14c3433e72f3667c0a83880baf37c49060600160405180910390a1505050505050565b7ff0c57e16840df040f15088dc2f81fe391c3923bec73e23a9662efc9c229c6a008054600160401b810460ff1615906001600160401b03166000811580156110c15750825b90506000826001600160401b031660011480156110dd5750303b155b9050811580156110eb575080155b156111095760405163f92ee8a960e01b815260040160405180910390fd5b845467ffffffffffffffff19166001178555831561113357845460ff60401b1916600160401b1785555b61113b611bbc565b611143611bcc565b61114b611bcc565b600080546001600160a01b0319166001600160a01b038b1617905560018a905561117660008c611570565b5061118f6000805160206137748339815191528c611570565b506111a860008051602061377483398151915289611570565b50600480546001600160a01b03808a166001600160a01b0319928316179092556005805492891692909116919091179055831561121f57845460ff60401b19168555604051600181527fc7f505b2f371ae2175ee4913f4499e1f2633a7b5936321eed1cdaeb6115181d29060200160405180910390a15b5050505050505050505050565b6000808560405160200161124291815260200190565b604051602081830303815290604052905060005b85518110156112db5781868281518110611272576112726133e5565b6020026020010151600001516001600160a01b0316878381518110611299576112996133e5565b6020026020010151602001516040516020016112b793929190613547565b604051602081830303815290604052915080806112d390613440565b915050611256565b5060005b845181101561138357818582815181106112fb576112fb6133e5565b6020026020010151600001516001600160a01b0316868381518110611322576113226133e5565b602002602001015160200151878481518110611340576113406133e5565b60200260200101516040015160405160200161135f94939291906133fb565b6040516020818303038152906040529150808061137b90613440565b9150506112df565b5060005b835181101561140c57818482815181106113a3576113a36133e5565b6020026020010151600001516001600160a01b03168583815181106113ca576113ca6133e5565b6020026020010151602001516040516020016113e893929190613547565b6040516020818303038152906040529150808061140490613440565b915050611387565b50805160209091012095945050505050565b6114278261076e565b61143081611566565b6107ac8383611727565b60008051602061377483398151915261145281611566565b61145a611bd4565b61146688888888611c05565b61146f87611c95565b600080600061147e8989611daf565b925092509250826000036114a55760405163235e146960e01b815260040160405180910390fd5b828511156114c6576040516302d8ae6560e51b815260040160405180910390fd5b6114d281886001611aba565b60006114de84846106a9565b905060006114ec8d83611e25565b905061151c6001547f010e13e50cb99b6b3c8270ec6e16acfccbe1164a629d74b43549567a77593aff838b611ef7565b7fc68e0510c43808522ad89c060ab20d5fd11453f9cf5d4ed1de9b3355eff2e8488d868660405161154f9392919061356e565b60405180910390a150505050505050505050505050565b610b058133611f77565b600060008051602061379483398151915261158b8484610d1d565b61160b576000848152602082815260408083206001600160a01b03871684529091529020805460ff191660011790556115c13390565b6001600160a01b0316836001600160a01b0316857f2f8788117e7eff1d82e926ec794901d17c78024a50270940304540a733656f0d60405160405180910390a460019150506106a3565b60009150506106a3565b815481106116605760405162461bcd60e51b8152602060048201526013602482015272496e646578206f7574206f6620626f756e647360681b60448201526064015b60405180910390fd5b815482906116709060019061347d565b81548110611680576116806133e5565b90600052602060002090600302018282815481106116a0576116a06133e5565b60009182526020909120825460039092020180546001600160a01b0319166001600160a01b039092169190911781556001808301549082015560029182015491015581548290806116f3576116f36135e0565b60008281526020812060036000199093019283020180546001600160a01b0319168155600181018290556002015590555050565b60006000805160206137948339815191526117428484610d1d565b1561160b576000848152602082815260408083206001600160a01b0387168085529252808320805460ff1916905551339287917ff6391f5c32d9c69d2a47ea670b442974b53935d1edc7fd64eb21e047a839171b9190a460019150506106a3565b6117ab611fb0565b6000805160206137b4833981519152805460ff191681557f5db9ee0a495bf2e6ff9c91a7834c1ba4fdd244a5e8aa4e537bd38aeae4b073aa335b6040516001600160a01b03909116815260200160405180910390a150565b306001600160a01b037f000000000000000000000000000000000000000000000000000000000000000016148061188a57507f00000000000000000000000000000000000000000000000000000000000000006001600160a01b031661187e600080516020613754833981519152546001600160a01b031690565b6001600160a01b031614155b156118a85760405163703e46dd60e11b815260040160405180910390fd5b565b6000610c4181611566565b816001600160a01b03166352d1902d6040518163ffffffff1660e01b8152600401602060405180830381865afa92505050801561190f575060408051601f3d908101601f1916820190925261190c918101906135f6565b60015b61193757604051634c9c8ce360e01b81526001600160a01b0383166004820152602401611657565b600080516020613754833981519152811461196857604051632a87526960e21b815260048101829052602401611657565b610add8383611fe0565b306001600160a01b037f000000000000000000000000000000000000000000000000000000000000000016146118a85760405163703e46dd60e11b815260040160405180910390fd5b81156107ac5760405163262b3b3160e11b81526004810183905260248101849052604481018290526001600160a01b03851690634c567662906064015b600060405180830381600087803b158015611a1257600080fd5b505af1158015611a26573d6000803e3d6000fd5b5050505050505050565b611a38611bd4565b6000805160206137b4833981519152805460ff191660011781557f62e78cea01bee320cd4e420270b5ea74000d11b0c9f74754ebdbfc544b05a258336117e5565b81156107ac576040516357439c0b60e11b81526004810183905260248101849052604481018290526001600160a01b0385169063ae873816906064016119f8565b60005b83518110156107ac576000848281518110611ada57611ada6133e5565b602090810291909101015160045481519192506001600160a01b03908116911603611b93578215611b6f576005546020820151604051632e1a7d4d60e01b81526001600160a01b0390921691632e1a7d4d91611b3c9160040190815260200190565b600060405180830381600087803b158015611b5657600080fd5b505af1158015611b6a573d6000803e3d6000fd5b505050505b80516001546020830151611b8e929190611b8988826134f5565b612036565b611ba9565b611ba98160000151600154836020015187612036565b5080611bb481613440565b915050611abd565b611bc46120a5565b6118a86120ee565b6118a86120a5565b6000805160206137b48339815191525460ff16156118a85760405163d93c066560e01b815260040160405180910390fd5b6000611c138585858561122c565b9050600080611c218361210f565b604080516002808252606082018352939550919350600092906020830190803683370190505090508281600081518110611c5d57611c5d6133e5565b6020026020010181815250508181600181518110611c7d57611c7d6133e5565b602002602001018181525050611a2660015482612139565b60005b8151811015610c4157611ce6828281518110611cb657611cb66133e5565b60200260200101516000015130848481518110611cd557611cd56133e5565b6020026020010151602001516121ad565b60045482516001600160a01b0390911690839083908110611d0957611d096133e5565b6020026020010151600001516001600160a01b031603611d9d5760055482516001600160a01b039091169063d0e30db090849084908110611d4c57611d4c6133e5565b6020026020010151602001516040518263ffffffff1660e01b81526004016000604051808303818588803b158015611d8357600080fd5b505af1158015611d97573d6000803e3d6000fd5b50505050505b80611da781613440565b915050611c98565b6000606080600080600080611dc389612212565b9350935093509350611dd682828a61264b565b600854600754600091611de89161347d565b90508015611e0c57611dfc85858b84612718565b9750975097505050505050611e1e565b50929550909350859250611e1e915050565b9250925092565b6060600080611e338561210f565b91509150600080611e438661210f565b60408051600480825260a0820190925292945090925060009190602082016080803683370190505090508481600081518110611e8157611e816133e5565b6020026020010181815250508381600181518110611ea157611ea16133e5565b6020026020010181815250508281600281518110611ec157611ec16133e5565b6020026020010181815250508181600381518110611ee157611ee16133e5565b6020908102919091010152979650505050505050565b600054604051633e3aa6c560e01b81526001600160a01b0390911690633e3aa6c5908390611f2d9088908890889060040161360f565b604080518083038185885af1158015611f4a573d6000803e3d6000fd5b50505050506040513d601f19601f82011682018060405250810190611f6f9190613459565b505050505050565b611f818282610d1d565b610c415760405163e2517d3f60e01b81526001600160a01b038216600482015260248101839052604401611657565b6000805160206137b48339815191525460ff166118a857604051638dfc202b60e01b815260040160405180910390fd5b611fe98261288b565b6040516001600160a01b038316907fbc7cd75a20ee27fd9adebab32041f755214dbc6bffa90cc0225b39da2e5c2d3b90600090a280511561202e57610add82826128f0565b610c41612966565b81156107ac57604051631c57762b60e31b815260048101839052602481018490526001600160a01b0385169063e2bbb1589083906044016000604051808303818588803b15801561208657600080fd5b505af115801561209a573d6000803e3d6000fd5b505050505050505050565b7ff0c57e16840df040f15088dc2f81fe391c3923bec73e23a9662efc9c229c6a0054600160401b900460ff166118a857604051631afcd79f60e31b815260040160405180910390fd5b6120f66120a5565b6000805160206137b4833981519152805460ff19169055565b600080600161212060806002613712565b61212a919061347d565b83169360809390931c92915050565b60005460405162b2775760e61b81526001600160a01b0390911690632c9dd5c09061216a908590859060040161371e565b6020604051808303816000875af1158015612189573d6000803e3d6000fd5b505050506040513d601f19601f82011682018060405250810190610add91906135f6565b604051627b8a6760e11b8152600481018290526001600160a01b03838116602483015284169062f714ce90604401600060405180830381600087803b1580156121f557600080fd5b505af1158015612209573d6000803e3d6000fd5b50505050505050565b600060606000606084516001600160401b0381111561223357612233612d78565b60405190808252806020026020018201604052801561229157816020015b61227e604051806060016040528060006001600160a01b0316815260200160008152602001600081525090565b8152602001906001900390816122515790505b5060075486519194506122a3916134f5565b6001600160401b038111156122ba576122ba612d78565b6040519080825280602002602001820160405280156122ff57816020015b60408051808201909152600080825260208201528152602001906001900390816122d85790505b50905060005b8551811015612643576000868281518110612322576123226133e5565b60209081029190910181015180516001600160a01b039081166000908152600284526040808220815180830190925280548416825260010154909216828501529282015191935091036123ee5780518251604080850151905163a9059cbb60e01b81526001600160a01b039283166004820152602481019190915291169063a9059cbb906044016020604051808303816000875af11580156123c8573d6000803e3d6000fd5b505050506040513d601f19601f820116820180604052508101906123ec9190613525565b505b815160208301516040808501519051632747a90b60e21b8152600481019290925260248201526001600160a01b0390911690639d1ea42c9060440160408051808303816000875af1925050508015612463575060408051601f3d908101601f1916820190925261246091810190613459565b60015b61255f5760068054600181018255600091909152825160039091027ff652222313e28459528d920b65115c16c04f3efc82aaedc97be59f3f377c0d3f810180546001600160a01b039384166001600160a01b03199091161790556020808501517ff652222313e28459528d920b65115c16c04f3efc82aaedc97be59f3f377c0d40830155604080860180517ff652222313e28459528d920b65115c16c04f3efc82aaedc97be59f3f377c0d419094019390935580518082019091528482015190931683529051908201528451859087908110612541576125416133e5565b6020026020010181905250848061255790613440565b95505061262e565b604051806060016040528085600001516001600160a01b0316815260200183815260200182815250888a81518110612599576125996133e5565b6020026020010181905250836020015160021480156125bc575083604001518114155b1561261e57604051806040016040528084602001516001600160a01b031681526020018286604001516125ef919061347d565b815250868881518110612604576126046133e5565b6020026020010181905250868061261a90613440565b9750505b8861262881613440565b99505050505b5050808061263b90613440565b915050612305565b509193509193565b60005b838110156107ac57600083828151811061266a5761266a6133e5565b6020026020010151905060005b835181101561270357838181518110612692576126926133e5565b6020026020010151600001516001600160a01b031682600001516001600160a01b0316036126f15781602001518482815181106126d1576126d16133e5565b60200260200101516020018181516126e9919061347d565b905250612703565b806126fb81613440565b915050612677565b5050808061271090613440565b91505061264e565b600060608060008060008061272f8b8b8b8b612985565b60075460085592965090945092509050811561287157600089518361275491906134f5565b90506000816001600160401b0381111561277057612770612d78565b6040519080825280602002602001820160405280156127b557816020015b604080518082019091526000808252602082015281526020019060019003908161278e5790505b50905060005b8281101561285e578b51811015612808578b81815181106127de576127de6133e5565b60200260200101518282815181106127f8576127f86133e5565b602002602001018190525061284c565b838c5182612816919061347d565b81518110612826576128266133e5565b6020026020010151828281518110612840576128406133e5565b60200260200101819052505b8061285681613440565b9150506127bb565b5094975092955092935061288192505050565b5091945092508591506128819050565b9450945094915050565b806001600160a01b03163b6000036128c157604051634c9c8ce360e01b81526001600160a01b0382166004820152602401611657565b60008051602061375483398151915280546001600160a01b0319166001600160a01b0392909216919091179055565b6060600080846001600160a01b03168460405161290d9190613737565b600060405180830381855af49150503d8060008114612948576040519150601f19603f3d011682016040523d82523d6000602084013e61294d565b606091505b509150915061295d858383612aee565b95945050505050565b34156118a85760405163b398979f60e01b815260040160405180910390fd5b60006060818161299585896134f5565b9350836001600160401b038111156129af576129af612d78565b604051908082528060200260200182016040528015612a0d57816020015b6129fa604051806060016040528060006001600160a01b0316815260200160008152602001600081525090565b8152602001906001900390816129cd5790505b509250846001600160401b03811115612a2857612a28612d78565b604051908082528060200260200182016040528015612a6d57816020015b6040805180820190915260008082526020820152815260200190600190039081612a465790505b50905060005b84811015612ae25788811015612abf57878181518110612a9557612a956133e5565b6020026020010151848281518110612aaf57612aaf6133e5565b6020026020010181905250612ad0565b612acd818a868a8688612b4a565b92505b80612ada81613440565b915050612a73565b50945094509450949050565b606082612b0357612afe82612d25565b610c1f565b8151158015612b1a57506001600160a01b0384163b155b15612b4357604051639996b31560e01b81526001600160a01b0385166004820152602401611657565b5092915050565b600080612b57878961347d565b9050600060078281548110612b6e57612b6e6133e5565b90600052602060002090600302016040518060600160405290816000820160009054906101000a90046001600160a01b03166001600160a01b03166001600160a01b0316815260200160018201548152602001600282015481525050905080878a81518110612bdf57612bdf6133e5565b6020908102919091010152604081015115612d185780516001600160a01b03908116600090815260026020908152604080832081518083019092528054851682526001015490931690830152805b8851811015612cbd5782602001516001600160a01b0316898281518110612c5657612c566133e5565b6020026020010151600001516001600160a01b031603612cab578360400151898281518110612c8757612c876133e5565b6020026020010151602001818151612c9f91906134f5565b90525060019150612cbd565b80612cb581613440565b915050612c2d565b5080612d1557604051806040016040528083602001516001600160a01b031681526020018460400151815250878781518110612cfb57612cfb6133e5565b60200260200101819052508580612d1190613440565b9650505b50505b5091979650505050505050565b805115612d355780518082602001fd5b604051630a12f52160e11b815260040160405180910390fd5b600060208284031215612d6057600080fd5b81356001600160e01b031981168114610c1f57600080fd5b634e487b7160e01b600052604160045260246000fd5b604080519081016001600160401b0381118282101715612db057612db0612d78565b60405290565b604051601f8201601f191681016001600160401b0381118282101715612dde57612dde612d78565b604052919050565b60006001600160401b03821115612dff57612dff612d78565b5060051b60200190565b6001600160a01b0381168114610b0557600080fd5b6000612e31612e2c84612de6565b612db6565b83815290506020808201906060808602850187811115612e5057600080fd5b855b81811015612ebb5782818a031215612e6a5760008081fd5b604080518481018181106001600160401b0382111715612e8c57612e8c612d78565b82528235612e9981612e09565b8152828601358682015281830135918101919091528552938301938201612e52565b50505050509392505050565b60008060408385031215612eda57600080fd5b8235915060208301356001600160401b03811115612ef757600080fd5b8301601f81018513612f0857600080fd5b612f1785823560208401612e1e565b9150509250929050565b600060208284031215612f3357600080fd5b5035919050565b60008060408385031215612f4d57600080fd5b823591506020830135612f5f81612e09565b809150509250929050565b600082601f830112612f7b57600080fd5b81356020612f8b612e2c83612de6565b82815260069290921b84018101918181019086841115612faa57600080fd5b8286015b84811015612ff25760408189031215612fc75760008081fd5b612fcf612d8e565b8135612fda81612e09565b81528185013585820152835291830191604001612fae565b509695505050505050565b60006020828403121561300f57600080fd5b81356001600160401b0381111561302557600080fd5b61303184828501612f6a565b949350505050565b6000806040838503121561304c57600080fd5b823561305781612e09565b91506020838101356001600160401b038082111561307457600080fd5b818601915086601f83011261308857600080fd5b81358181111561309a5761309a612d78565b6130ac601f8201601f19168501612db6565b915080825287848285010111156130c257600080fd5b80848401858401376000848284010152508093505050509250929050565b6000806000606084860312156130f557600080fd5b833561310081612e09565b95602085013595506040909401359392505050565b60008060006060848603121561312a57600080fd5b833561313581612e09565b9250602084013561314581612e09565b9150604084013561315581612e09565b809150509250925092565b6000806000806080858703121561317657600080fd5b843561318181612e09565b966020860135965060408601359560600135945092505050565b60008060008060008060c087890312156131b457600080fd5b86356131bf81612e09565b95506020870135945060408701356131d681612e09565b935060608701356131e681612e09565b925060808701356131f681612e09565b915060a087013561320681612e09565b809150509295509295509295565b60005b8381101561322f578181015183820152602001613217565b50506000910152565b6020815260008251806020840152613257816040850160208701613214565b601f01601f19169190910160400192915050565b60006020828403121561327d57600080fd5b8135610c1f81612e09565b600082601f83011261329957600080fd5b610c1f83833560208501612e1e565b600080600080608085870312156132be57600080fd5b8435935060208501356001600160401b03808211156132dc57600080fd5b6132e888838901612f6a565b945060408701359150808211156132fe57600080fd5b61330a88838901613288565b9350606087013591508082111561332057600080fd5b5061332d87828801612f6a565b91505092959194509250565b600080600080600080600060e0888a03121561335457600080fd5b8735965060208801356001600160401b038082111561337257600080fd5b61337e8b838c01612f6a565b975060408a013591508082111561339457600080fd5b6133a08b838c01613288565b965060608a01359150808211156133b657600080fd5b506133c38a828b01612f6a565b979a969950949760808101359660a0820135965060c090910135945092505050565b634e487b7160e01b600052603260045260246000fd5b6000855161340d818460208a01613214565b919091019384525060208301919091526040820152606001919050565b634e487b7160e01b600052601160045260246000fd5b6000600182016134525761345261342a565b5060010190565b6000806040838503121561346c57600080fd5b505080516020909101519092909150565b818103818111156106a3576106a361342a565b60008161349f5761349f61342a565b506000190190565b600081518084526020808501945080840160005b838110156134d7578151875295820195908201906001016134bb565b509495945050505050565b602081526000610c1f60208301846134a7565b808201808211156106a3576106a361342a565b60006020828403121561351a57600080fd5b8151610c1f81612e09565b60006020828403121561353757600080fd5b81518015158114610c1f57600080fd5b60008451613559818460208901613214565b91909101928352506020820152604001919050565b600060608083018684526020868186015260408381870152828751808552608088019150838901945060005b818110156135d057855180516001600160a01b03168452858101518685015284015184840152948401949186019160010161359a565b50909a9950505050505050505050565b634e487b7160e01b600052603160045260246000fd5b60006020828403121561360857600080fd5b5051919050565b83815282602082015260606040820152600061295d60608301846134a7565b600181815b8085111561366957816000190482111561364f5761364f61342a565b8085161561365c57918102915b93841c9390800290613633565b509250929050565b600082613680575060016106a3565b8161368d575060006106a3565b81600181146136a357600281146136ad576136c9565b60019150506106a3565b60ff8411156136be576136be61342a565b50506001821b6106a3565b5060208310610133831016604e8410600b84101617156136ec575081810a6106a3565b6136f6838361362e565b806000190482111561370a5761370a61342a565b029392505050565b6000610c1f8383613671565b82815260406020820152600061303160408301846134a7565b60008251613749818460208701613214565b919091019291505056fe360894a13ba1a3210667c828492db98dca3e2076cc3735a920a3ca505d382bbce127292c8f7eb20e1ae830ed6055b6eb36e261836100610d12677231d0791f7f02dd7bc7dec4dceedda775e58dd541e08a116c6c53815c0bd028192f7b626800cd5ed15c6e187e77e9aee88184c21f4f2182ab5827cb3b7e07fbedcd63f03300a2646970667358221220cc50e58d914a60a3a354b9b14b69c089b3d7a64d3575dda716b36a9f5bf28b2b64736f6c63430008140033",
  "devdoc": {
    "errors": {
      "AccessControlBadConfirmation()": [
        {
          "details": "The caller of a function is not the expected one. NOTE: Don't confuse with {AccessControlUnauthorizedAccount}."
        }
      ],
      "AccessControlUnauthorizedAccount(address,bytes32)": [
        {
          "details": "The `account` is missing a role."
        }
      ],
      "AddressEmptyCode(address)": [
        {
          "details": "There's no code at `target` (it is not a contract)."
        }
      ],
      "ERC1967InvalidImplementation(address)": [
        {
          "details": "The `implementation` of the proxy is invalid."
        }
      ],
      "ERC1967NonPayable()": [
        {
          "details": "An upgrade function sees `msg.value > 0` that may be lost."
        }
      ],
      "EnforcedPause()": [
        {
          "details": "The operation failed because the contract is paused."
        }
      ],
      "ExpectedPause()": [
        {
          "details": "The operation failed because the contract is not paused."
        }
      ],
      "FailedInnerCall()": [
        {
          "details": "A call to an address target failed. The target may have reverted."
        }
      ],
      "InvalidInitialization()": [
        {
          "details": "The contract is already initialized."
        }
      ],
      "NotInitializing()": [
        {
          "details": "The contract is not initializing."
        }
      ],
      "ReentrancyGuardReentrantCall()": [
        {
          "details": "Unauthorized reentrant call."
        }
      ],
      "UUPSUnauthorizedCallContext()": [
        {
          "details": "The call is from an unauthorized context."
        }
      ],
      "UUPSUnsupportedProxiableUUID(bytes32)": [
        {
          "details": "The storage `slot` is unsupported as a UUID."
        }
      ]
    },
    "events": {
      "Initialized(uint64)": {
        "details": "Triggered when the contract has been initialized or reinitialized."
      },
      "Paused(address)": {
        "details": "Emitted when the pause is triggered by `account`."
      },
      "RoleAdminChanged(bytes32,bytes32,bytes32)": {
        "details": "Emitted when `newAdminRole` is set as ``role``'s admin role, replacing `previousAdminRole` `DEFAULT_ADMIN_ROLE` is the starting admin for all roles, despite {RoleAdminChanged} not being emitted signaling this."
      },
      "RoleGranted(bytes32,address,address)": {
        "details": "Emitted when `account` is granted `role`. `sender` is the account that originated the contract call, an admin role bearer except when using {AccessControl-_setupRole}."
      },
      "RoleRevoked(bytes32,address,address)": {
        "details": "Emitted when `account` is revoked `role`. `sender` is the account that originated the contract call:   - if using `revokeRole`, it is the admin role bearer   - if using `renounceRole`, it is the role bearer (i.e. `account`)"
      },
      "Unpaused(address)": {
        "details": "Emitted when the pause is lifted by `account`."
      },
      "Upgraded(address)": {
        "details": "Emitted when the implementation is upgraded."
      }
    },
    "kind": "dev",
    "methods": {
      "constructor": {
        "custom:oz-upgrades-unsafe-allow": "constructor"
      },
      "getRoleAdmin(bytes32)": {
        "details": "Returns the admin role that controls `role`. See {grantRole} and {revokeRole}. To change a role's admin, use {_setRoleAdmin}."
      },
      "grantRole(bytes32,address)": {
        "details": "Grants `role` to `account`. If `account` had not been already granted `role`, emits a {RoleGranted} event. Requirements: - the caller must have ``role``'s admin role. May emit a {RoleGranted} event."
      },
      "hasRole(bytes32,address)": {
        "details": "Returns `true` if `account` has been granted `role`."
      },
      "initialize(address,uint256,address,address,address,address)": {
        "params": {
          "_l2PoolingManager": "troveManager address",
          "_relayer": "relayer address",
          "_starknetCore": "starknetCore address"
        }
      },
      "paused()": {
        "details": "Returns true if the contract is paused, and false otherwise."
      },
      "proxiableUUID()": {
        "details": "Implementation of the ERC1822 {proxiableUUID} function. This returns the storage slot used by the implementation. It is used to validate the implementation's compatibility when performing an upgrade. IMPORTANT: A proxy pointing at a proxiable contract should not be considered proxiable itself, because this risks bricking a proxy that upgrades to it, by delegating to itself until out of gas. Thus it is critical that this function revert if invoked through a proxy. This is guaranteed by the `notDelegated` modifier."
      },
      "renounceRole(bytes32,address)": {
        "details": "Revokes `role` from the calling account. Roles are often managed via {grantRole} and {revokeRole}: this function's purpose is to provide a mechanism for accounts to lose their privileges if they are compromised (such as when a trusted device is misplaced). If the calling account had been revoked `role`, emits a {RoleRevoked} event. Requirements: - the caller must be `callerConfirmation`. May emit a {RoleRevoked} event."
      },
      "revokeRole(bytes32,address)": {
        "details": "Revokes `role` from `account`. If `account` had been granted `role`, emits a {RoleRevoked} event. Requirements: - the caller must have ``role``'s admin role. May emit a {RoleRevoked} event."
      },
      "supportsInterface(bytes4)": {
        "details": "See {IERC165-supportsInterface}."
      },
      "upgradeToAndCall(address,bytes)": {
        "custom:oz-upgrades-unsafe-allow-reachable": "delegatecall",
        "details": "Upgrade the implementation of the proxy to `newImplementation`, and subsequently execute the function call encoded in `data`. Calls {_authorizeUpgrade}. Emits an {Upgraded} event."
      }
    },
    "version": 1
  },
  "userdoc": {
    "kind": "user",
    "methods": {
      "initialize(address,uint256,address,address,address,address)": {
        "notice": "Initialier the contract state."
      },
      "starknetCore()": {
        "notice": "Starknet messaging interface."
      }
    },
    "version": 1
  },
  "storageLayout": {
    "storage": [
      {
        "astId": 7776,
        "contract": "contracts/PoolingManager.sol:PoolingManager",
        "label": "starknetCore",
        "offset": 0,
        "slot": "0",
        "type": "t_contract(IStarknetMessaging)7635"
      },
      {
        "astId": 5220,
        "contract": "contracts/PoolingManager.sol:PoolingManager",
        "label": "l2PoolingManager",
        "offset": 0,
        "slot": "1",
        "type": "t_uint256"
      },
      {
        "astId": 5225,
        "contract": "contracts/PoolingManager.sol:PoolingManager",
        "label": "strategyInfo",
        "offset": 0,
        "slot": "2",
        "type": "t_mapping(t_address,t_struct(StrategyInfo)7076_storage)"
      },
      {
        "astId": 5227,
        "contract": "contracts/PoolingManager.sol:PoolingManager",
        "label": "batchCounter",
        "offset": 0,
        "slot": "3",
        "type": "t_uint256"
      },
      {
        "astId": 5229,
        "contract": "contracts/PoolingManager.sol:PoolingManager",
        "label": "ethBridge",
        "offset": 0,
        "slot": "4",
        "type": "t_address"
      },
      {
        "astId": 5231,
        "contract": "contracts/PoolingManager.sol:PoolingManager",
        "label": "ethWrapped",
        "offset": 0,
        "slot": "5",
        "type": "t_address"
      },
      {
        "astId": 5235,
        "contract": "contracts/PoolingManager.sol:PoolingManager",
        "label": "pendingRequests",
        "offset": 0,
        "slot": "6",
        "type": "t_array(t_struct(StrategyReportL2)7088_storage)dyn_storage"
      },
      {
        "astId": 5239,
        "contract": "contracts/PoolingManager.sol:PoolingManager",
        "label": "pendingRequestsExecuted",
        "offset": 0,
        "slot": "7",
        "type": "t_array(t_struct(StrategyReportL1)7095_storage)dyn_storage"
      },
      {
        "astId": 5241,
        "contract": "contracts/PoolingManager.sol:PoolingManager",
        "label": "pendingRequestsExecutedCounter",
        "offset": 0,
        "slot": "8",
        "type": "t_uint256"
      }
    ],
    "types": {
      "t_address": {
        "encoding": "inplace",
        "label": "address",
        "numberOfBytes": "20"
      },
      "t_array(t_struct(StrategyReportL1)7095_storage)dyn_storage": {
        "base": "t_struct(StrategyReportL1)7095_storage",
        "encoding": "dynamic_array",
        "label": "struct StrategyReportL1[]",
        "numberOfBytes": "32"
      },
      "t_array(t_struct(StrategyReportL2)7088_storage)dyn_storage": {
        "base": "t_struct(StrategyReportL2)7088_storage",
        "encoding": "dynamic_array",
        "label": "struct StrategyReportL2[]",
        "numberOfBytes": "32"
      },
      "t_contract(IStarknetMessaging)7635": {
        "encoding": "inplace",
        "label": "contract IStarknetMessaging",
        "numberOfBytes": "20"
      },
      "t_mapping(t_address,t_struct(StrategyInfo)7076_storage)": {
        "encoding": "mapping",
        "key": "t_address",
        "label": "mapping(address => struct StrategyInfo)",
        "numberOfBytes": "32",
        "value": "t_struct(StrategyInfo)7076_storage"
      },
      "t_struct(StrategyInfo)7076_storage": {
        "encoding": "inplace",
        "label": "struct StrategyInfo",
        "members": [
          {
            "astId": 7073,
            "contract": "contracts/PoolingManager.sol:PoolingManager",
            "label": "underlying",
            "offset": 0,
            "slot": "0",
            "type": "t_address"
          },
          {
            "astId": 7075,
            "contract": "contracts/PoolingManager.sol:PoolingManager",
            "label": "bridge",
            "offset": 0,
            "slot": "1",
            "type": "t_address"
          }
        ],
        "numberOfBytes": "64"
      },
      "t_struct(StrategyReportL1)7095_storage": {
        "encoding": "inplace",
        "label": "struct StrategyReportL1",
        "members": [
          {
            "astId": 7090,
            "contract": "contracts/PoolingManager.sol:PoolingManager",
            "label": "l1Strategy",
            "offset": 0,
            "slot": "0",
            "type": "t_address"
          },
          {
            "astId": 7092,
            "contract": "contracts/PoolingManager.sol:PoolingManager",
            "label": "l1Nav",
            "offset": 0,
            "slot": "1",
            "type": "t_uint256"
          },
          {
            "astId": 7094,
            "contract": "contracts/PoolingManager.sol:PoolingManager",
            "label": "amount",
            "offset": 0,
            "slot": "2",
            "type": "t_uint256"
          }
        ],
        "numberOfBytes": "96"
      },
      "t_struct(StrategyReportL2)7088_storage": {
        "encoding": "inplace",
        "label": "struct StrategyReportL2",
        "members": [
          {
            "astId": 7083,
            "contract": "contracts/PoolingManager.sol:PoolingManager",
            "label": "l1Strategy",
            "offset": 0,
            "slot": "0",
            "type": "t_address"
          },
          {
            "astId": 7085,
            "contract": "contracts/PoolingManager.sol:PoolingManager",
            "label": "actionId",
            "offset": 0,
            "slot": "1",
            "type": "t_uint256"
          },
          {
            "astId": 7087,
            "contract": "contracts/PoolingManager.sol:PoolingManager",
            "label": "amount",
            "offset": 0,
            "slot": "2",
            "type": "t_uint256"
          }
        ],
        "numberOfBytes": "96"
      },
      "t_uint256": {
        "encoding": "inplace",
        "label": "uint256",
        "numberOfBytes": "32"
      }
    }
  }
}