{
  "_format": "hh-sol-artifact-1",
  "contractName": "PoolingManagerMock",
  "sourceName": "contracts/mock/poolingManager/poolingManagerMock.sol",
  "abi": [
    {
      "inputs": [],
      "stateMutability": "nonpayable",
      "type": "constructor"
    },
    {
      "inputs": [
        {
          "internalType": "address",
          "name": "strategy",
          "type": "address"
        },
        {
          "internalType": "uint256",
          "name": "actionId",
          "type": "uint256"
        },
        {
          "internalType": "uint256",
          "name": "amount",
          "type": "uint256"
        }
      ],
      "name": "handleReport",
      "outputs": [],
      "stateMutability": "nonpayable",
      "type": "function"
    },
    {
      "inputs": [
        {
          "internalType": "bytes32",
          "name": "role",
          "type": "bytes32"
        },
        {
          "internalType": "address",
          "name": "account",
          "type": "address"
        }
      ],
      "name": "hasRole",
      "outputs": [
        {
          "internalType": "bool",
          "name": "",
          "type": "bool"
        }
      ],
      "stateMutability": "view",
      "type": "function"
    },
    {
      "inputs": [],
      "name": "lastNav",
      "outputs": [
        {
          "internalType": "uint256",
          "name": "",
          "type": "uint256"
        }
      ],
      "stateMutability": "view",
      "type": "function"
    },
    {
      "inputs": [],
      "name": "lastWithdrawalAmount",
      "outputs": [
        {
          "internalType": "uint256",
          "name": "",
          "type": "uint256"
        }
      ],
      "stateMutability": "view",
      "type": "function"
    },
    {
      "inputs": [],
      "name": "owner",
      "outputs": [
        {
          "internalType": "address",
          "name": "",
          "type": "address"
        }
      ],
      "stateMutability": "view",
      "type": "function"
    }
  ],
  "bytecode": "0x608060405234801561001057600080fd5b50600280546001600160a01b0319163317905561025e806100326000396000f3fe608060405234801561001057600080fd5b50600436106100565760003560e01c80624436fc1461005b5780634f9c3d7a146100775780638da5cb5b1461008057806391d14854146100ab578063ee3a74a6146100ce575b600080fd5b61006460015481565b6040519081526020015b60405180910390f35b61006460005481565b600254610093906001600160a01b031681565b6040516001600160a01b03909116815260200161006e565b6100be6100b93660046101a5565b6100e3565b604051901515815260200161006e565b6100e16100dc3660046101d1565b61010d565b005b6002546000906001600160a01b0380841691160361010357506001610107565b5060005b92915050565b604051632747a90b60e21b815260048101839052602481018290526001600160a01b03841690639d1ea42c9060440160408051808303816000875af115801561015a573d6000803e3d6000fd5b505050506040513d601f19601f8201168201806040525081019061017e9190610204565b600155600055505050565b80356001600160a01b03811681146101a057600080fd5b919050565b600080604083850312156101b857600080fd5b823591506101c860208401610189565b90509250929050565b6000806000606084860312156101e657600080fd5b6101ef84610189565b95602085013595506040909401359392505050565b6000806040838503121561021757600080fd5b50508051602090910151909290915056fea2646970667358221220647b87ad9634cfbbcb36c8e90f6930f8eb338d3ebaf7c6e5d5cb313eedc143b164736f6c63430008140033",
  "linkReferences": {},
  "deployedLinkReferences": {}
}